{
  "contractName": "DiskSpaceRental",
  "abi": [
    {
      "inputs": [],
      "stateMutability": "nonpayable",
      "type": "constructor"
    },
    {
      "anonymous": false,
      "inputs": [
        {
          "indexed": true,
          "internalType": "address",
          "name": "renter",
          "type": "address"
        },
        {
          "indexed": false,
          "internalType": "uint256",
          "name": "storageId",
          "type": "uint256"
        },
        {
          "indexed": false,
          "internalType": "string",
          "name": "cid",
          "type": "string"
        }
      ],
      "name": "CIDUpdated",
      "type": "event"
    },
    {
      "anonymous": false,
      "inputs": [
        {
          "indexed": true,
          "internalType": "address",
          "name": "deployer",
          "type": "address"
        }
      ],
      "name": "ContractDeployed",
      "type": "event"
    },
    {
      "anonymous": false,
      "inputs": [
        {
          "indexed": true,
          "internalType": "address",
          "name": "provider",
          "type": "address"
        },
        {
          "indexed": false,
          "internalType": "uint256",
          "name": "amount",
          "type": "uint256"
        }
      ],
      "name": "FundsWithdrawn",
      "type": "event"
    },
    {
      "anonymous": false,
      "inputs": [
        {
          "indexed": true,
          "internalType": "address",
          "name": "user",
          "type": "address"
        }
      ],
      "name": "ProfileUpdated",
      "type": "event"
    },
    {
      "anonymous": false,
      "inputs": [
        {
          "indexed": true,
          "internalType": "address",
          "name": "provider",
          "type": "address"
        },
        {
          "indexed": false,
          "internalType": "uint8",
          "name": "rating",
          "type": "uint8"
        }
      ],
      "name": "ProviderRated",
      "type": "event"
    },
    {
      "anonymous": false,
      "inputs": [
        {
          "indexed": true,
          "internalType": "address",
          "name": "renter",
          "type": "address"
        },
        {
          "indexed": false,
          "internalType": "uint256",
          "name": "storageId",
          "type": "uint256"
        },
        {
          "indexed": false,
          "internalType": "uint256",
          "name": "amount",
          "type": "uint256"
        }
      ],
      "name": "RefundIssued",
      "type": "event"
    },
    {
      "anonymous": false,
      "inputs": [
        {
          "indexed": true,
          "internalType": "address",
          "name": "renter",
          "type": "address"
        },
        {
          "indexed": false,
          "internalType": "uint256",
          "name": "storageId",
          "type": "uint256"
        },
        {
          "indexed": false,
          "internalType": "bool",
          "name": "refunded",
          "type": "bool"
        }
      ],
      "name": "RentalEnded",
      "type": "event"
    },
    {
      "anonymous": false,
      "inputs": [
        {
          "indexed": true,
          "internalType": "address",
          "name": "provider",
          "type": "address"
        },
        {
          "indexed": false,
          "internalType": "uint256",
          "name": "pricePerDay",
          "type": "uint256"
        },
        {
          "indexed": false,
          "internalType": "uint256",
          "name": "sizeInGB",
          "type": "uint256"
        }
      ],
      "name": "StorageListed",
      "type": "event"
    },
    {
      "anonymous": false,
      "inputs": [
        {
          "indexed": true,
          "internalType": "address",
          "name": "renter",
          "type": "address"
        },
        {
          "indexed": true,
          "internalType": "address",
          "name": "provider",
          "type": "address"
        },
        {
          "indexed": false,
          "internalType": "uint256",
          "name": "storageId",
          "type": "uint256"
        },
        {
          "indexed": false,
          "internalType": "uint256",
          "name": "rentalDays",
          "type": "uint256"
        },
        {
          "indexed": false,
          "internalType": "uint256",
          "name": "endTime",
          "type": "uint256"
        },
        {
          "indexed": false,
          "internalType": "string",
          "name": "cid",
          "type": "string"
        }
      ],
      "name": "StorageRented",
      "type": "event"
    },
    {
      "anonymous": false,
      "inputs": [
        {
          "indexed": true,
          "internalType": "address",
          "name": "provider",
          "type": "address"
        },
        {
          "indexed": false,
          "internalType": "uint256",
          "name": "storageId",
          "type": "uint256"
        }
      ],
      "name": "StorageUnlisted",
      "type": "event"
    },
    {
      "inputs": [],
      "name": "basePricePerGB",
      "outputs": [
        {
          "internalType": "uint256",
          "name": "",
          "type": "uint256"
        }
      ],
      "stateMutability": "view",
      "type": "function",
      "constant": true
    },
    {
      "inputs": [
        {
          "internalType": "address",
          "name": "",
          "type": "address"
        }
      ],
      "name": "providerBalances",
      "outputs": [
        {
          "internalType": "uint256",
          "name": "",
          "type": "uint256"
        }
      ],
      "stateMutability": "view",
      "type": "function",
      "constant": true
    },
    {
      "inputs": [
        {
          "internalType": "address",
          "name": "",
          "type": "address"
        }
      ],
      "name": "providerRatings",
      "outputs": [
        {
          "internalType": "uint256",
          "name": "",
          "type": "uint256"
        }
      ],
      "stateMutability": "view",
      "type": "function",
      "constant": true
    },
    {
      "inputs": [
        {
          "internalType": "address",
          "name": "",
          "type": "address"
        },
        {
          "internalType": "uint256",
          "name": "",
          "type": "uint256"
        }
      ],
      "name": "rentals",
      "outputs": [
        {
          "internalType": "address",
          "name": "provider",
          "type": "address"
        },
        {
          "internalType": "uint256",
          "name": "storageId",
          "type": "uint256"
        },
        {
          "internalType": "uint256",
          "name": "endTime",
          "type": "uint256"
        },
        {
          "internalType": "uint256",
          "name": "escrowAmount",
          "type": "uint256"
        },
        {
          "internalType": "string",
          "name": "cid",
          "type": "string"
        }
      ],
      "stateMutability": "view",
      "type": "function",
      "constant": true
    },
    {
      "inputs": [
        {
          "internalType": "address",
          "name": "",
          "type": "address"
        },
        {
          "internalType": "uint256",
          "name": "",
          "type": "uint256"
        }
      ],
      "name": "storageProviders",
      "outputs": [
        {
          "internalType": "address",
          "name": "provider",
          "type": "address"
        },
        {
          "internalType": "uint256",
          "name": "pricePerDay",
          "type": "uint256"
        },
        {
          "internalType": "uint256",
          "name": "sizeInGB",
          "type": "uint256"
        },
        {
          "internalType": "bool",
          "name": "isAvailable",
          "type": "bool"
        }
      ],
      "stateMutability": "view",
      "type": "function",
      "constant": true
    },
    {
      "inputs": [
        {
          "internalType": "address",
          "name": "",
          "type": "address"
        }
      ],
      "name": "totalReviews",
      "outputs": [
        {
          "internalType": "uint256",
          "name": "",
          "type": "uint256"
        }
      ],
      "stateMutability": "view",
      "type": "function",
      "constant": true
    },
    {
      "inputs": [
        {
          "internalType": "string",
          "name": "_encryptedData",
          "type": "string"
        }
      ],
      "name": "updateEncryptedProfile",
      "outputs": [],
      "stateMutability": "nonpayable",
      "type": "function"
    },
    {
      "inputs": [
        {
          "internalType": "address",
          "name": "_user",
          "type": "address"
        }
      ],
      "name": "getEncryptedProfile",
      "outputs": [
        {
          "internalType": "string",
          "name": "",
          "type": "string"
        }
      ],
      "stateMutability": "view",
      "type": "function",
      "constant": true
    },
    {
      "inputs": [
        {
          "internalType": "uint256",
          "name": "_sizeInGB",
          "type": "uint256"
        }
      ],
      "name": "listStorage",
      "outputs": [],
      "stateMutability": "nonpayable",
      "type": "function"
    },
    {
      "inputs": [
        {
          "internalType": "address",
          "name": "_provider",
          "type": "address"
        },
        {
          "internalType": "uint256",
          "name": "_storageId",
          "type": "uint256"
        },
        {
          "internalType": "uint256",
          "name": "_rentalDays",
          "type": "uint256"
        },
        {
          "internalType": "string",
          "name": "_cid",
          "type": "string"
        }
      ],
      "name": "rentStorage",
      "outputs": [],
      "stateMutability": "payable",
      "type": "function",
      "payable": true
    },
    {
      "inputs": [
        {
          "internalType": "address",
          "name": "_renter",
          "type": "address"
        },
        {
          "internalType": "uint256",
          "name": "_index",
          "type": "uint256"
        }
      ],
      "name": "getCID",
      "outputs": [
        {
          "internalType": "string",
          "name": "",
          "type": "string"
        }
      ],
      "stateMutability": "view",
      "type": "function",
      "constant": true
    },
    {
      "inputs": [
        {
          "internalType": "uint256",
          "name": "_index",
          "type": "uint256"
        },
        {
          "internalType": "string",
          "name": "_cid",
          "type": "string"
        }
      ],
      "name": "updateCID",
      "outputs": [],
      "stateMutability": "nonpayable",
      "type": "function"
    },
    {
      "inputs": [
        {
          "internalType": "uint256",
          "name": "_index",
          "type": "uint256"
        }
      ],
      "name": "endRental",
      "outputs": [],
      "stateMutability": "nonpayable",
      "type": "function"
    },
    {
      "inputs": [],
      "name": "withdrawFunds",
      "outputs": [],
      "stateMutability": "nonpayable",
      "type": "function"
    },
    {
      "inputs": [
        {
          "internalType": "uint256",
          "name": "_storageId",
          "type": "uint256"
        }
      ],
      "name": "unlistStorage",
      "outputs": [],
      "stateMutability": "nonpayable",
      "type": "function"
    },
    {
      "inputs": [
        {
          "internalType": "address",
          "name": "_provider",
          "type": "address"
        },
        {
          "internalType": "uint8",
          "name": "_rating",
          "type": "uint8"
        }
      ],
      "name": "rateProvider",
      "outputs": [],
      "stateMutability": "nonpayable",
      "type": "function"
    },
    {
      "inputs": [
        {
          "internalType": "uint256",
          "name": "_index",
          "type": "uint256"
        }
      ],
      "name": "requestRefund",
      "outputs": [],
      "stateMutability": "nonpayable",
      "type": "function"
    },
    {
      "inputs": [
        {
          "internalType": "address",
          "name": "_provider",
          "type": "address"
        }
      ],
      "name": "getMyListings",
      "outputs": [
        {
          "components": [
            {
              "internalType": "address",
              "name": "provider",
              "type": "address"
            },
            {
              "internalType": "uint256",
              "name": "pricePerDay",
              "type": "uint256"
            },
            {
              "internalType": "uint256",
              "name": "sizeInGB",
              "type": "uint256"
            },
            {
              "internalType": "bool",
              "name": "isAvailable",
              "type": "bool"
            }
          ],
          "internalType": "struct DiskSpaceRental.Storage[]",
          "name": "",
          "type": "tuple[]"
        }
      ],
      "stateMutability": "view",
      "type": "function",
      "constant": true
    }
  ],
  "bytecode": "0x6080604052662386f26fc1000060075534801561001b57600080fd5b5060016000819055503373ffffffffffffffffffffffffffffffffffffffff167f8ffcdc15a283d706d38281f500270d8b5a656918f555de0913d7455e3e6bc1bf60405160405180910390a26133ca806100766000396000f3fe6080604052600436106101085760003560e01c806387d9026311610095578063ae33525d11610064578063ae33525d1461038e578063b2474059146103b7578063d8f097ab146103f7578063ef0d733414610434578063feaeaf621461045057610108565b806387d90263146102e857806397491d6f146103115780639ea02e491461033a578063a4b2409e1461036557610108565b806347b3d12a116100dc57806347b3d12a146101cb5780635aa3a6bb14610208578063703e2a3a14610231578063796fa9b21461026e57806386cfb88a146102ab57610108565b8062ed051e1461010d578063090fc58b1461013657806324600fc31461017757806328ac7f2c1461018e575b600080fd5b34801561011957600080fd5b50610134600480360381019061012f91906121e3565b610479565b005b34801561014257600080fd5b5061015d6004803603810190610158919061226e565b61069b565b60405161016e95949392919061235c565b60405180910390f35b34801561018357600080fd5b5061018c610796565b005b34801561019a57600080fd5b506101b560048036038101906101b091906123b6565b61094f565b6040516101c291906123e3565b60405180910390f35b3480156101d757600080fd5b506101f260048036038101906101ed919061226e565b610967565b6040516101ff91906123fe565b60405180910390f35b34801561021457600080fd5b5061022f600480360381019061022a9190612555565b610ae0565b005b34801561023d57600080fd5b50610258600480360381019061025391906123b6565b610b76565b60405161026591906123e3565b60405180910390f35b34801561027a57600080fd5b50610295600480360381019061029091906123b6565b610b8e565b6040516102a291906126db565b60405180910390f35b3480156102b757600080fd5b506102d260048036038101906102cd91906123b6565b610cb1565b6040516102df91906123fe565b60405180910390f35b3480156102f457600080fd5b5061030f600480360381019061030a91906121e3565b610d85565b005b34801561031d57600080fd5b50610338600480360381019061033391906121e3565b6110c3565b005b34801561034657600080fd5b5061034f6114f5565b60405161035c91906123e3565b60405180910390f35b34801561037157600080fd5b5061038c600480360381019061038791906121e3565b6114fb565b005b34801561039a57600080fd5b506103b560048036038101906103b09190612736565b6119db565b005b3480156103c357600080fd5b506103de60048036038101906103d9919061226e565b611b32565b6040516103ee9493929190612785565b60405180910390f35b34801561040357600080fd5b5061041e600480360381019061041991906123b6565b611bac565b60405161042b91906123e3565b60405180910390f35b61044e600480360381019061044991906127ca565b611bc4565b005b34801561045c57600080fd5b506104776004803603810190610472919061284d565b611ff4565b005b600081116104bc576040517f08c379a00000000000000000000000000000000000000000000000000000000081526004016104b3906128f5565b60405180910390fd5b6000600a600160003373ffffffffffffffffffffffffffffffffffffffff1673ffffffffffffffffffffffffffffffffffffffff1681526020019081526020016000208054905061050d9190612973565b600161051991906129a4565b60075461052691906129d8565b9050600160003373ffffffffffffffffffffffffffffffffffffffff1673ffffffffffffffffffffffffffffffffffffffff16815260200190815260200160002060405180608001604052803373ffffffffffffffffffffffffffffffffffffffff16815260200183815260200184815260200160011515815250908060018154018082558091505060019003906000526020600020906004020160009091909190915060008201518160000160006101000a81548173ffffffffffffffffffffffffffffffffffffffff021916908373ffffffffffffffffffffffffffffffffffffffff160217905550602082015181600101556040820151816002015560608201518160030160006101000a81548160ff02191690831515021790555050503373ffffffffffffffffffffffffffffffffffffffff167f5d682a5e507aa5ac81a337e9b2e3aaa322da84b344799fe2d6cb234b73597e1c828460405161068f929190612a1a565b60405180910390a25050565b600260205281600052604060002081815481106106b757600080fd5b9060005260206000209060050201600091509150508060000160009054906101000a900473ffffffffffffffffffffffffffffffffffffffff169080600101549080600201549080600301549080600401805461071390612a72565b80601f016020809104026020016040519081016040528092919081815260200182805461073f90612a72565b801561078c5780601f106107615761010080835404028352916020019161078c565b820191906000526020600020905b81548152906001019060200180831161076f57829003601f168201915b5050505050905085565b6002600054036107db576040517f08c379a00000000000000000000000000000000000000000000000000000000081526004016107d290612aef565b60405180910390fd5b60026000819055506000600360003373ffffffffffffffffffffffffffffffffffffffff1673ffffffffffffffffffffffffffffffffffffffff1681526020019081526020016000205490506000811161086a576040517f08c379a000000000000000000000000000000000000000000000000000000000815260040161086190612b5b565b60405180910390fd5b6000600360003373ffffffffffffffffffffffffffffffffffffffff1673ffffffffffffffffffffffffffffffffffffffff168152602001908152602001600020819055503373ffffffffffffffffffffffffffffffffffffffff166108fc829081150290604051600060405180830381858888f193505050501580156108f5573d6000803e3d6000fd5b503373ffffffffffffffffffffffffffffffffffffffff167feaff4b37086828766ad3268786972c0cd24259d4c87a80f9d3963a3c3d999b0d8260405161093c91906123e3565b60405180910390a2506001600081905550565b60036020528060005260406000206000915090505481565b6060600260008473ffffffffffffffffffffffffffffffffffffffff1673ffffffffffffffffffffffffffffffffffffffff1681526020019081526020016000208054905082106109ed576040517f08c379a00000000000000000000000000000000000000000000000000000000081526004016109e490612bc7565b60405180910390fd5b600260008473ffffffffffffffffffffffffffffffffffffffff1673ffffffffffffffffffffffffffffffffffffffff1681526020019081526020016000208281548110610a3e57610a3d612be7565b5b90600052602060002090600502016004018054610a5a90612a72565b80601f0160208091040260200160405190810160405280929190818152602001828054610a8690612a72565b8015610ad35780601f10610aa857610100808354040283529160200191610ad3565b820191906000526020600020905b815481529060010190602001808311610ab657829003601f168201915b5050505050905092915050565b80600660003373ffffffffffffffffffffffffffffffffffffffff1673ffffffffffffffffffffffffffffffffffffffff1681526020019081526020016000206000019081610b2f9190612dc2565b503373ffffffffffffffffffffffffffffffffffffffff167fbe4ec58a792f909e102ee3d745d0c3b34a4d437a54d903c4db098d31c556422f60405160405180910390a250565b60046020528060005260406000206000915090505481565b6060600160008373ffffffffffffffffffffffffffffffffffffffff1673ffffffffffffffffffffffffffffffffffffffff168152602001908152602001600020805480602002602001604051908101604052809291908181526020016000905b82821015610ca657838290600052602060002090600402016040518060800160405290816000820160009054906101000a900473ffffffffffffffffffffffffffffffffffffffff1673ffffffffffffffffffffffffffffffffffffffff1673ffffffffffffffffffffffffffffffffffffffff16815260200160018201548152602001600282015481526020016003820160009054906101000a900460ff16151515158152505081526020019060010190610bef565b505050509050919050565b6060600660008373ffffffffffffffffffffffffffffffffffffffff1673ffffffffffffffffffffffffffffffffffffffff1681526020019081526020016000206000018054610d0090612a72565b80601f0160208091040260200160405190810160405280929190818152602001828054610d2c90612a72565b8015610d795780601f10610d4e57610100808354040283529160200191610d79565b820191906000526020600020905b815481529060010190602001808311610d5c57829003601f168201915b50505050509050919050565b600160003373ffffffffffffffffffffffffffffffffffffffff1673ffffffffffffffffffffffffffffffffffffffff168152602001908152602001600020805490508110610e09576040517f08c379a0000000000000000000000000000000000000000000000000000000008152600401610e0090612ee0565b60405180910390fd5b600160003373ffffffffffffffffffffffffffffffffffffffff1673ffffffffffffffffffffffffffffffffffffffff16815260200190815260200160002060018060003373ffffffffffffffffffffffffffffffffffffffff1673ffffffffffffffffffffffffffffffffffffffff16815260200190815260200160002080549050610e969190612f00565b81548110610ea757610ea6612be7565b5b9060005260206000209060040201600160003373ffffffffffffffffffffffffffffffffffffffff1673ffffffffffffffffffffffffffffffffffffffff1681526020019081526020016000208281548110610f0657610f05612be7565b5b90600052602060002090600402016000820160009054906101000a900473ffffffffffffffffffffffffffffffffffffffff168160000160006101000a81548173ffffffffffffffffffffffffffffffffffffffff021916908373ffffffffffffffffffffffffffffffffffffffff16021790555060018201548160010155600282015481600201556003820160009054906101000a900460ff168160030160006101000a81548160ff021916908315150217905550905050600160003373ffffffffffffffffffffffffffffffffffffffff1673ffffffffffffffffffffffffffffffffffffffff16815260200190815260200160002080548061100e5761100d612f34565b5b6001900381819060005260206000209060040201600080820160006101000a81549073ffffffffffffffffffffffffffffffffffffffff0219169055600182016000905560028201600090556003820160006101000a81549060ff0219169055505090553373ffffffffffffffffffffffffffffffffffffffff167fe79328456dcdc3a32f4265f98fc8c05513712eea6729428d07d1802a93045a08826040516110b891906123e3565b60405180910390a250565b600260005403611108576040517f08c379a00000000000000000000000000000000000000000000000000000000081526004016110ff90612aef565b60405180910390fd5b6002600081905550600260003373ffffffffffffffffffffffffffffffffffffffff1673ffffffffffffffffffffffffffffffffffffffff168152602001908152602001600020805490508110611194576040517f08c379a000000000000000000000000000000000000000000000000000000000815260040161118b90612bc7565b60405180910390fd5b600260003373ffffffffffffffffffffffffffffffffffffffff1673ffffffffffffffffffffffffffffffffffffffff16815260200190815260200160002081815481106111e5576111e4612be7565b5b906000526020600020906005020160020154421015611239576040517f08c379a000000000000000000000000000000000000000000000000000000000815260040161123090612faf565b60405180910390fd5b600260003373ffffffffffffffffffffffffffffffffffffffff1673ffffffffffffffffffffffffffffffffffffffff1681526020019081526020016000206001600260003373ffffffffffffffffffffffffffffffffffffffff1673ffffffffffffffffffffffffffffffffffffffff168152602001908152602001600020805490506112c79190612f00565b815481106112d8576112d7612be7565b5b9060005260206000209060050201600260003373ffffffffffffffffffffffffffffffffffffffff1673ffffffffffffffffffffffffffffffffffffffff168152602001908152602001600020828154811061133757611336612be7565b5b90600052602060002090600502016000820160009054906101000a900473ffffffffffffffffffffffffffffffffffffffff168160000160006101000a81548173ffffffffffffffffffffffffffffffffffffffff021916908373ffffffffffffffffffffffffffffffffffffffff160217905550600182015481600101556002820154816002015560038201548160030155600482018160040190816113de9190612fe5565b50905050600260003373ffffffffffffffffffffffffffffffffffffffff1673ffffffffffffffffffffffffffffffffffffffff16815260200190815260200160002080548061143157611430612f34565b5b6001900381819060005260206000209060050201600080820160006101000a81549073ffffffffffffffffffffffffffffffffffffffff0219169055600182016000905560028201600090556003820160009055600482016000611495919061213c565b505090553373ffffffffffffffffffffffffffffffffffffffff167fc61b762d39e0775db30552b237ee0aba1a869e6ba29541b155821f53c39b38908260006040516114e29291906130cd565b60405180910390a2600160008190555050565b60075481565b600260005403611540576040517f08c379a000000000000000000000000000000000000000000000000000000000815260040161153790612aef565b60405180910390fd5b6002600081905550600260003373ffffffffffffffffffffffffffffffffffffffff1673ffffffffffffffffffffffffffffffffffffffff1681526020019081526020016000208054905081106115cc576040517f08c379a00000000000000000000000000000000000000000000000000000000081526004016115c390612bc7565b60405180910390fd5b600260003373ffffffffffffffffffffffffffffffffffffffff1673ffffffffffffffffffffffffffffffffffffffff168152602001908152602001600020818154811061161d5761161c612be7565b5b906000526020600020906005020160020154421015611671576040517f08c379a000000000000000000000000000000000000000000000000000000000815260040161166890612faf565b60405180910390fd5b6000600260003373ffffffffffffffffffffffffffffffffffffffff1673ffffffffffffffffffffffffffffffffffffffff16815260200190815260200160002082815481106116c4576116c3612be7565b5b9060005260206000209060050201600301549050600260003373ffffffffffffffffffffffffffffffffffffffff1673ffffffffffffffffffffffffffffffffffffffff1681526020019081526020016000206001600260003373ffffffffffffffffffffffffffffffffffffffff1673ffffffffffffffffffffffffffffffffffffffff168152602001908152602001600020805490506117669190612f00565b8154811061177757611776612be7565b5b9060005260206000209060050201600260003373ffffffffffffffffffffffffffffffffffffffff1673ffffffffffffffffffffffffffffffffffffffff16815260200190815260200160002083815481106117d6576117d5612be7565b5b90600052602060002090600502016000820160009054906101000a900473ffffffffffffffffffffffffffffffffffffffff168160000160006101000a81548173ffffffffffffffffffffffffffffffffffffffff021916908373ffffffffffffffffffffffffffffffffffffffff1602179055506001820154816001015560028201548160020155600382015481600301556004820181600401908161187d9190612fe5565b50905050600260003373ffffffffffffffffffffffffffffffffffffffff1673ffffffffffffffffffffffffffffffffffffffff1681526020019081526020016000208054806118d0576118cf612f34565b5b6001900381819060005260206000209060050201600080820160006101000a81549073ffffffffffffffffffffffffffffffffffffffff0219169055600182016000905560028201600090556003820160009055600482016000611934919061213c565b505090553373ffffffffffffffffffffffffffffffffffffffff166108fc829081150290604051600060405180830381858888f1935050505015801561197e573d6000803e3d6000fd5b503373ffffffffffffffffffffffffffffffffffffffff167f93c496f36ecab5f5583f216646cac3acb12a63aeacddb1a9251ceb81f0ee36e783836040516119c7929190612a1a565b60405180910390a250600160008190555050565b60018160ff16101580156119f3575060058160ff1611155b611a32576040517f08c379a0000000000000000000000000000000000000000000000000000000008152600401611a2990613142565b60405180910390fd5b8060ff16600460008473ffffffffffffffffffffffffffffffffffffffff1673ffffffffffffffffffffffffffffffffffffffff1681526020019081526020016000206000828254611a8491906129a4565b92505081905550600560008373ffffffffffffffffffffffffffffffffffffffff1673ffffffffffffffffffffffffffffffffffffffff1681526020019081526020016000206000815480929190611adb90613162565b91905055508173ffffffffffffffffffffffffffffffffffffffff167f11abe8074860e0bc30fe1e939af8af88f3e47815a5e6f316d87b12912c56e67282604051611b2691906131b9565b60405180910390a25050565b60016020528160005260406000208181548110611b4e57600080fd5b9060005260206000209060040201600091509150508060000160009054906101000a900473ffffffffffffffffffffffffffffffffffffffff16908060010154908060020154908060030160009054906101000a900460ff16905084565b60056020528060005260406000206000915090505481565b600260005403611c09576040517f08c379a0000000000000000000000000000000000000000000000000000000008152600401611c0090612aef565b60405180910390fd5b6002600081905550600160008573ffffffffffffffffffffffffffffffffffffffff1673ffffffffffffffffffffffffffffffffffffffff168152602001908152602001600020805490508310611c95576040517f08c379a0000000000000000000000000000000000000000000000000000000008152600401611c8c90612ee0565b60405180910390fd5b6000600160008673ffffffffffffffffffffffffffffffffffffffff1673ffffffffffffffffffffffffffffffffffffffff1681526020019081526020016000208481548110611ce857611ce7612be7565b5b906000526020600020906004020190508060030160009054906101000a900460ff16611d49576040517f08c379a0000000000000000000000000000000000000000000000000000000008152600401611d4090613220565b60405180910390fd5b60008311611d8c576040517f08c379a0000000000000000000000000000000000000000000000000000000008152600401611d839061328c565b60405180910390fd5b6000838260010154611d9e91906129d8565b9050803414611de2576040517f08c379a0000000000000000000000000000000000000000000000000000000008152600401611dd9906132f8565b60405180910390fd5b60006201518085611df391906129d8565b42611dfe91906129a4565b9050600260003373ffffffffffffffffffffffffffffffffffffffff1673ffffffffffffffffffffffffffffffffffffffff1681526020019081526020016000206040518060a001604052808973ffffffffffffffffffffffffffffffffffffffff16815260200188815260200183815260200184815260200186815250908060018154018082558091505060019003906000526020600020906005020160009091909190915060008201518160000160006101000a81548173ffffffffffffffffffffffffffffffffffffffff021916908373ffffffffffffffffffffffffffffffffffffffff1602179055506020820151816001015560408201518160020155606082015181600301556080820151816004019081611f1f9190612dc2565b50505081600360008973ffffffffffffffffffffffffffffffffffffffff1673ffffffffffffffffffffffffffffffffffffffff1681526020019081526020016000206000828254611f7191906129a4565b925050819055508673ffffffffffffffffffffffffffffffffffffffff163373ffffffffffffffffffffffffffffffffffffffff167f5f8e9b40134381ef41679ce70b254b34a334c8b8961f5da9635a42cb686e08f388888589604051611fdb9493929190613318565b60405180910390a3505050600160008190555050505050565b600260003373ffffffffffffffffffffffffffffffffffffffff1673ffffffffffffffffffffffffffffffffffffffff168152602001908152602001600020805490508210612078576040517f08c379a000000000000000000000000000000000000000000000000000000000815260040161206f90612bc7565b60405180910390fd5b80600260003373ffffffffffffffffffffffffffffffffffffffff1673ffffffffffffffffffffffffffffffffffffffff16815260200190815260200160002083815481106120ca576120c9612be7565b5b906000526020600020906005020160040190816120e79190612dc2565b503373ffffffffffffffffffffffffffffffffffffffff167f239aa29e2cb919fe7f6dae64c00bab69f4216532270ab6f31013b1563c05ac918383604051612130929190613364565b60405180910390a25050565b50805461214890612a72565b6000825580601f1061215a5750612179565b601f016020900490600052602060002090810190612178919061217c565b5b50565b5b8082111561219557600081600090555060010161217d565b5090565b6000604051905090565b600080fd5b600080fd5b6000819050919050565b6121c0816121ad565b81146121cb57600080fd5b50565b6000813590506121dd816121b7565b92915050565b6000602082840312156121f9576121f86121a3565b5b6000612207848285016121ce565b91505092915050565b600073ffffffffffffffffffffffffffffffffffffffff82169050919050565b600061223b82612210565b9050919050565b61224b81612230565b811461225657600080fd5b50565b60008135905061226881612242565b92915050565b60008060408385031215612285576122846121a3565b5b600061229385828601612259565b92505060206122a4858286016121ce565b9150509250929050565b6122b781612230565b82525050565b6122c6816121ad565b82525050565b600081519050919050565b600082825260208201905092915050565b60005b838110156123065780820151818401526020810190506122eb565b60008484015250505050565b6000601f19601f8301169050919050565b600061232e826122cc565b61233881856122d7565b93506123488185602086016122e8565b61235181612312565b840191505092915050565b600060a08201905061237160008301886122ae565b61237e60208301876122bd565b61238b60408301866122bd565b61239860608301856122bd565b81810360808301526123aa8184612323565b90509695505050505050565b6000602082840312156123cc576123cb6121a3565b5b60006123da84828501612259565b91505092915050565b60006020820190506123f860008301846122bd565b92915050565b600060208201905081810360008301526124188184612323565b905092915050565b600080fd5b600080fd5b7f4e487b7100000000000000000000000000000000000000000000000000000000600052604160045260246000fd5b61246282612312565b810181811067ffffffffffffffff821117156124815761248061242a565b5b80604052505050565b6000612494612199565b90506124a08282612459565b919050565b600067ffffffffffffffff8211156124c0576124bf61242a565b5b6124c982612312565b9050602081019050919050565b82818337600083830152505050565b60006124f86124f3846124a5565b61248a565b90508281526020810184848401111561251457612513612425565b5b61251f8482856124d6565b509392505050565b600082601f83011261253c5761253b612420565b5b813561254c8482602086016124e5565b91505092915050565b60006020828403121561256b5761256a6121a3565b5b600082013567ffffffffffffffff811115612589576125886121a8565b5b61259584828501612527565b91505092915050565b600081519050919050565b600082825260208201905092915050565b6000819050602082019050919050565b6125d381612230565b82525050565b6125e2816121ad565b82525050565b60008115159050919050565b6125fd816125e8565b82525050565b60808201600082015161261960008501826125ca565b50602082015161262c60208501826125d9565b50604082015161263f60408501826125d9565b50606082015161265260608501826125f4565b50505050565b60006126648383612603565b60808301905092915050565b6000602082019050919050565b60006126888261259e565b61269281856125a9565b935061269d836125ba565b8060005b838110156126ce5781516126b58882612658565b97506126c083612670565b9250506001810190506126a1565b5085935050505092915050565b600060208201905081810360008301526126f5818461267d565b905092915050565b600060ff82169050919050565b612713816126fd565b811461271e57600080fd5b50565b6000813590506127308161270a565b92915050565b6000806040838503121561274d5761274c6121a3565b5b600061275b85828601612259565b925050602061276c85828601612721565b9150509250929050565b61277f816125e8565b82525050565b600060808201905061279a60008301876122ae565b6127a760208301866122bd565b6127b460408301856122bd565b6127c16060830184612776565b95945050505050565b600080600080608085870312156127e4576127e36121a3565b5b60006127f287828801612259565b9450506020612803878288016121ce565b9350506040612814878288016121ce565b925050606085013567ffffffffffffffff811115612835576128346121a8565b5b61284187828801612527565b91505092959194509250565b60008060408385031215612864576128636121a3565b5b6000612872858286016121ce565b925050602083013567ffffffffffffffff811115612893576128926121a8565b5b61289f85828601612527565b9150509250929050565b7f53697a65206d7573742062652067726561746572207468616e207a65726f0000600082015250565b60006128df601e836122d7565b91506128ea826128a9565b602082019050919050565b6000602082019050818103600083015261290e816128d2565b9050919050565b7f4e487b7100000000000000000000000000000000000000000000000000000000600052601260045260246000fd5b7f4e487b7100000000000000000000000000000000000000000000000000000000600052601160045260246000fd5b600061297e826121ad565b9150612989836121ad565b92508261299957612998612915565b5b828204905092915050565b60006129af826121ad565b91506129ba836121ad565b92508282019050808211156129d2576129d1612944565b5b92915050565b60006129e3826121ad565b91506129ee836121ad565b92508282026129fc816121ad565b91508282048414831517612a1357612a12612944565b5b5092915050565b6000604082019050612a2f60008301856122bd565b612a3c60208301846122bd565b9392505050565b7f4e487b7100000000000000000000000000000000000000000000000000000000600052602260045260246000fd5b60006002820490506001821680612a8a57607f821691505b602082108103612a9d57612a9c612a43565b5b50919050565b7f5265656e7472616e637947756172643a207265656e7472616e742063616c6c00600082015250565b6000612ad9601f836122d7565b9150612ae482612aa3565b602082019050919050565b60006020820190508181036000830152612b0881612acc565b9050919050565b7f4e6f206561726e696e677320617661696c61626c650000000000000000000000600082015250565b6000612b456015836122d7565b9150612b5082612b0f565b602082019050919050565b60006020820190508181036000830152612b7481612b38565b9050919050565b7f496e76616c69642072656e74616c20696e646578000000000000000000000000600082015250565b6000612bb16014836122d7565b9150612bbc82612b7b565b602082019050919050565b60006020820190508181036000830152612be081612ba4565b9050919050565b7f4e487b7100000000000000000000000000000000000000000000000000000000600052603260045260246000fd5b60008190508160005260206000209050919050565b60006020601f8301049050919050565b600082821b905092915050565b600060088302612c787fffffffffffffffffffffffffffffffffffffffffffffffffffffffffffffffff82612c3b565b612c828683612c3b565b95508019841693508086168417925050509392505050565b6000819050919050565b6000612cbf612cba612cb5846121ad565b612c9a565b6121ad565b9050919050565b6000819050919050565b612cd983612ca4565b612ced612ce582612cc6565b848454612c48565b825550505050565b600090565b612d02612cf5565b612d0d818484612cd0565b505050565b5b81811015612d3157612d26600082612cfa565b600181019050612d13565b5050565b601f821115612d7657612d4781612c16565b612d5084612c2b565b81016020851015612d5f578190505b612d73612d6b85612c2b565b830182612d12565b50505b505050565b600082821c905092915050565b6000612d9960001984600802612d7b565b1980831691505092915050565b6000612db28383612d88565b9150826002028217905092915050565b612dcb826122cc565b67ffffffffffffffff811115612de457612de361242a565b5b612dee8254612a72565b612df9828285612d35565b600060209050601f831160018114612e2c5760008415612e1a578287015190505b612e248582612da6565b865550612e8c565b601f198416612e3a86612c16565b60005b82811015612e6257848901518255600182019150602085019450602081019050612e3d565b86831015612e7f5784890151612e7b601f891682612d88565b8355505b6001600288020188555050505b505050505050565b7f496e76616c69642073746f726167652049440000000000000000000000000000600082015250565b6000612eca6012836122d7565b9150612ed582612e94565b602082019050919050565b60006020820190508181036000830152612ef981612ebd565b9050919050565b6000612f0b826121ad565b9150612f16836121ad565b9250828203905081811115612f2e57612f2d612944565b5b92915050565b7f4e487b7100000000000000000000000000000000000000000000000000000000600052603160045260246000fd5b7f52656e74616c20706572696f64206e6f74206f76657200000000000000000000600082015250565b6000612f996016836122d7565b9150612fa482612f63565b602082019050919050565b60006020820190508181036000830152612fc881612f8c565b9050919050565b600081549050612fde81612a72565b9050919050565b818103612ff35750506130cb565b612ffc82612fcf565b67ffffffffffffffff8111156130155761301461242a565b5b61301f8254612a72565b61302a828285612d35565b6000601f8311600181146130595760008415613047578287015490505b6130518582612da6565b8655506130c4565b601f19841661306787612c16565b965061307286612c16565b60005b8281101561309a57848901548255600182019150600185019450602081019050613075565b868310156130b757848901546130b3601f891682612d88565b8355505b6001600288020188555050505b5050505050505b565b60006040820190506130e260008301856122bd565b6130ef6020830184612776565b9392505050565b7f526174696e67206d757374206265206265747765656e203120616e6420350000600082015250565b600061312c601e836122d7565b9150613137826130f6565b602082019050919050565b6000602082019050818103600083015261315b8161311f565b9050919050565b600061316d826121ad565b91507fffffffffffffffffffffffffffffffffffffffffffffffffffffffffffffffff820361319f5761319e612944565b5b600182019050919050565b6131b3816126fd565b82525050565b60006020820190506131ce60008301846131aa565b92915050565b7f53746f72616765206e6f7420617661696c61626c650000000000000000000000600082015250565b600061320a6015836122d7565b9150613215826131d4565b602082019050919050565b60006020820190508181036000830152613239816131fd565b9050919050565b7f4d7573742072656e7420666f72206174206c65617374206f6e65206461790000600082015250565b6000613276601e836122d7565b915061328182613240565b602082019050919050565b600060208201905081810360008301526132a581613269565b9050919050565b7f496e636f7272656374207061796d656e7420616d6f756e740000000000000000600082015250565b60006132e26018836122d7565b91506132ed826132ac565b602082019050919050565b60006020820190508181036000830152613311816132d5565b9050919050565b600060808201905061332d60008301876122bd565b61333a60208301866122bd565b61334760408301856122bd565b81810360608301526133598184612323565b905095945050505050565b600060408201905061337960008301856122bd565b818103602083015261338b8184612323565b9050939250505056fea2646970667358221220241fddcb0804fa18680e3eefff4f0d477f1899cbbdcd0edda58114b61f915eed64736f6c63430008130033",
  "immutableReferences": {},
  "source": "// SPDX-License-Identifier: MIT\r\npragma solidity ^0.8.19;\r\nimport \"./ReentrancyGuard.sol\";\r\n\r\n\r\n\r\n\r\ncontract DiskSpaceRental is ReentrancyGuard {\r\n    // --- EVENTS ---\r\n    event ContractDeployed(address indexed deployer);\r\n    event StorageListed(address indexed provider, uint256 pricePerDay, uint256 sizeInGB);\r\n    event StorageUnlisted(address indexed provider, uint256 storageId);\r\n    event StorageRented(address indexed renter, address indexed provider, uint256 storageId, uint256 rentalDays, uint256 endTime, string cid);\r\n    event RentalEnded(address indexed renter, uint256 storageId, bool refunded);\r\n    event CIDUpdated(address indexed renter, uint256 storageId, string cid);\r\n    event FundsWithdrawn(address indexed provider, uint256 amount);\r\n    event ProviderRated(address indexed provider, uint8 rating);\r\n    event RefundIssued(address indexed renter, uint256 storageId, uint256 amount);\r\n    event ProfileUpdated(address indexed user);\r\n\r\n    // --- STRUCTS ---\r\n    struct Storage {\r\n        address provider;\r\n        uint256 pricePerDay;\r\n        uint256 sizeInGB;\r\n        bool isAvailable;\r\n    }\r\n\r\n    struct Rental {\r\n        address provider;\r\n        uint256 storageId;\r\n        uint256 endTime;\r\n        uint256 escrowAmount;\r\n        string cid;\r\n    }\r\n\r\n    struct EncryptedProfile {\r\n        string encryptedData; // Encrypted JSON (displayName, avatarCID, bio)\r\n    }\r\n\r\n    // --- STATE ---\r\n    mapping(address => Storage[]) public storageProviders;\r\n    mapping(address => Rental[]) public rentals;\r\n    mapping(address => uint256) public providerBalances;\r\n    mapping(address => uint256) public providerRatings;\r\n    mapping(address => uint256) public totalReviews;\r\n    mapping(address => EncryptedProfile) private profiles;\r\n\r\n    uint256 public basePricePerGB = 0.01 ether;\r\n\r\n    constructor() {\r\n        emit ContractDeployed(msg.sender);\r\n    }\r\n\r\n    // --- PROFILE FUNCTIONS ---\r\n    function updateEncryptedProfile(string memory _encryptedData) external {\r\n        profiles[msg.sender].encryptedData = _encryptedData;\r\n        emit ProfileUpdated(msg.sender);\r\n    }\r\n\r\n    function getEncryptedProfile(address _user) external view returns (string memory) {\r\n        return profiles[_user].encryptedData;\r\n    }\r\n\r\n    // --- STORAGE LISTING ---\r\n    function listStorage(uint256 _sizeInGB) external {\r\n        require(_sizeInGB > 0, \"Size must be greater than zero\");\r\n\r\n        uint256 dynamicPrice = basePricePerGB * (1 + storageProviders[msg.sender].length / 10);\r\n\r\n        storageProviders[msg.sender].push(Storage({\r\n            provider: msg.sender,\r\n            pricePerDay: dynamicPrice,\r\n            sizeInGB: _sizeInGB,\r\n            isAvailable: true\r\n        }));\r\n\r\n        emit StorageListed(msg.sender, dynamicPrice, _sizeInGB);\r\n    }\r\n\r\n    // --- RENT STORAGE ---\r\n    function rentStorage(address _provider, uint256 _storageId, uint256 _rentalDays, string memory _cid) external payable nonReentrant {\r\n        require(_storageId < storageProviders[_provider].length, \"Invalid storage ID\");\r\n        Storage storage providerStorage = storageProviders[_provider][_storageId];\r\n\r\n        require(providerStorage.isAvailable, \"Storage not available\");\r\n        require(_rentalDays > 0, \"Must rent for at least one day\");\r\n\r\n        uint256 totalCost = providerStorage.pricePerDay * _rentalDays;\r\n        require(msg.value == totalCost, \"Incorrect payment amount\");\r\n\r\n        uint256 rentalEndTime = block.timestamp + (_rentalDays * 1 days);\r\n        rentals[msg.sender].push(Rental({\r\n            provider: _provider,\r\n            storageId: _storageId,\r\n            endTime: rentalEndTime,\r\n            escrowAmount: totalCost,\r\n            cid: _cid\r\n        }));\r\n\r\n        providerBalances[_provider] += totalCost;\r\n\r\n        emit StorageRented(msg.sender, _provider, _storageId, _rentalDays, rentalEndTime, _cid);\r\n    }\r\n\r\n    function getCID(address _renter, uint256 _index) public view returns (string memory) {\r\n        require(_index < rentals[_renter].length, \"Invalid rental index\");\r\n        return rentals[_renter][_index].cid;\r\n    }\r\n\r\n    function updateCID(uint256 _index, string memory _cid) external {\r\n        require(_index < rentals[msg.sender].length, \"Invalid rental index\");\r\n        rentals[msg.sender][_index].cid = _cid;\r\n        emit CIDUpdated(msg.sender, _index, _cid);\r\n    }\r\n\r\n    function endRental(uint256 _index) external nonReentrant {\r\n        require(_index < rentals[msg.sender].length, \"Invalid rental index\");\r\n        require(block.timestamp >= rentals[msg.sender][_index].endTime, \"Rental period not over\");\r\n\r\n        rentals[msg.sender][_index] = rentals[msg.sender][rentals[msg.sender].length - 1];\r\n        rentals[msg.sender].pop();\r\n\r\n        emit RentalEnded(msg.sender, _index, false);\r\n    }\r\n\r\n    function withdrawFunds() external nonReentrant {\r\n        uint256 balance = providerBalances[msg.sender];\r\n        require(balance > 0, \"No earnings available\");\r\n\r\n        providerBalances[msg.sender] = 0;\r\n        payable(msg.sender).transfer(balance);\r\n\r\n        emit FundsWithdrawn(msg.sender, balance);\r\n    }\r\n\r\n    function unlistStorage(uint256 _storageId) external {\r\n        require(_storageId < storageProviders[msg.sender].length, \"Invalid storage ID\");\r\n        storageProviders[msg.sender][_storageId] = storageProviders[msg.sender][storageProviders[msg.sender].length - 1];\r\n        storageProviders[msg.sender].pop();\r\n\r\n        emit StorageUnlisted(msg.sender, _storageId);\r\n    }\r\n\r\n    function rateProvider(address _provider, uint8 _rating) external {\r\n        require(_rating >= 1 && _rating <= 5, \"Rating must be between 1 and 5\");\r\n        providerRatings[_provider] += _rating;\r\n        totalReviews[_provider]++;\r\n        emit ProviderRated(_provider, _rating);\r\n    }\r\n\r\n    function requestRefund(uint256 _index) external nonReentrant {\r\n        require(_index < rentals[msg.sender].length, \"Invalid rental index\");\r\n        require(block.timestamp >= rentals[msg.sender][_index].endTime, \"Rental period not over\");\r\n\r\n        uint256 refundAmount = rentals[msg.sender][_index].escrowAmount;\r\n\r\n        rentals[msg.sender][_index] = rentals[msg.sender][rentals[msg.sender].length - 1];\r\n        rentals[msg.sender].pop();\r\n        payable(msg.sender).transfer(refundAmount);\r\n\r\n        emit RefundIssued(msg.sender, _index, refundAmount);\r\n    }\r\n    function getMyListings(address _provider) external view returns (Storage[] memory) {\r\n    return storageProviders[_provider];\r\n}\r\n\r\n}\r\n",
  "sourcePath": "C:\\Users\\dattu\\OneDrive\\Desktop\\poject code\\PBL@\\contracts\\DiskSpaceRental.sol",
  "compiler": {
    "name": "solc",
    "version": "0.8.19+commit.7dd6d404.Emscripten.clang"
  },
  "schemaVersion": "3.4.16",
  "updatedAt": "2025-04-15T20:47:39.547Z",
  "networkType": "ethereum",
  "devdoc": {
    "kind": "dev",
    "methods": {},
    "version": 1
  },
  "userdoc": {
    "kind": "user",
    "methods": {},
    "version": 1
  }
}