{
  "contractName": "DiskSpaceRental",
  "abi": [
    {
      "inputs": [],
      "stateMutability": "nonpayable",
      "type": "constructor"
    },
    {
      "anonymous": false,
      "inputs": [
        {
          "indexed": true,
          "internalType": "address",
          "name": "renter",
          "type": "address"
        },
        {
          "indexed": false,
          "internalType": "uint256",
          "name": "storageId",
          "type": "uint256"
        },
        {
          "indexed": false,
          "internalType": "string",
          "name": "cid",
          "type": "string"
        }
      ],
      "name": "CIDUpdated",
      "type": "event"
    },
    {
      "anonymous": false,
      "inputs": [
        {
          "indexed": true,
          "internalType": "address",
          "name": "deployer",
          "type": "address"
        }
      ],
      "name": "ContractDeployed",
      "type": "event"
    },
    {
      "anonymous": false,
      "inputs": [
        {
          "indexed": true,
          "internalType": "address",
          "name": "provider",
          "type": "address"
        },
        {
          "indexed": false,
          "internalType": "uint256",
          "name": "amount",
          "type": "uint256"
        }
      ],
      "name": "FundsWithdrawn",
      "type": "event"
    },
    {
      "anonymous": false,
      "inputs": [
        {
          "indexed": true,
          "internalType": "address",
          "name": "user",
          "type": "address"
        }
      ],
      "name": "ProfileUpdated",
      "type": "event"
    },
    {
      "anonymous": false,
      "inputs": [
        {
          "indexed": true,
          "internalType": "address",
          "name": "provider",
          "type": "address"
        },
        {
          "indexed": false,
          "internalType": "uint8",
          "name": "rating",
          "type": "uint8"
        }
      ],
      "name": "ProviderRated",
      "type": "event"
    },
    {
      "anonymous": false,
      "inputs": [
        {
          "indexed": true,
          "internalType": "address",
          "name": "renter",
          "type": "address"
        },
        {
          "indexed": false,
          "internalType": "uint256",
          "name": "storageId",
          "type": "uint256"
        },
        {
          "indexed": false,
          "internalType": "uint256",
          "name": "amount",
          "type": "uint256"
        }
      ],
      "name": "RefundIssued",
      "type": "event"
    },
    {
      "anonymous": false,
      "inputs": [
        {
          "indexed": true,
          "internalType": "address",
          "name": "renter",
          "type": "address"
        },
        {
          "indexed": false,
          "internalType": "uint256",
          "name": "storageId",
          "type": "uint256"
        },
        {
          "indexed": false,
          "internalType": "bool",
          "name": "refunded",
          "type": "bool"
        }
      ],
      "name": "RentalEnded",
      "type": "event"
    },
    {
      "anonymous": false,
      "inputs": [
        {
          "indexed": true,
          "internalType": "address",
          "name": "provider",
          "type": "address"
        },
        {
          "indexed": false,
          "internalType": "uint256",
          "name": "pricePerDay",
          "type": "uint256"
        },
        {
          "indexed": false,
          "internalType": "uint256",
          "name": "sizeInGB",
          "type": "uint256"
        }
      ],
      "name": "StorageListed",
      "type": "event"
    },
    {
      "anonymous": false,
      "inputs": [
        {
          "indexed": true,
          "internalType": "address",
          "name": "renter",
          "type": "address"
        },
        {
          "indexed": true,
          "internalType": "address",
          "name": "provider",
          "type": "address"
        },
        {
          "indexed": false,
          "internalType": "uint256",
          "name": "storageId",
          "type": "uint256"
        },
        {
          "indexed": false,
          "internalType": "uint256",
          "name": "rentalDays",
          "type": "uint256"
        },
        {
          "indexed": false,
          "internalType": "uint256",
          "name": "endTime",
          "type": "uint256"
        },
        {
          "indexed": false,
          "internalType": "string",
          "name": "cid",
          "type": "string"
        }
      ],
      "name": "StorageRented",
      "type": "event"
    },
    {
      "anonymous": false,
      "inputs": [
        {
          "indexed": true,
          "internalType": "address",
          "name": "provider",
          "type": "address"
        },
        {
          "indexed": false,
          "internalType": "uint256",
          "name": "storageId",
          "type": "uint256"
        }
      ],
      "name": "StorageUnlisted",
      "type": "event"
    },
    {
      "inputs": [],
      "name": "basePricePerGB",
      "outputs": [
        {
          "internalType": "uint256",
          "name": "",
          "type": "uint256"
        }
      ],
      "stateMutability": "view",
      "type": "function",
      "constant": true
    },
    {
      "inputs": [
        {
          "internalType": "address",
          "name": "",
          "type": "address"
        }
      ],
      "name": "providerBalances",
      "outputs": [
        {
          "internalType": "uint256",
          "name": "",
          "type": "uint256"
        }
      ],
      "stateMutability": "view",
      "type": "function",
      "constant": true
    },
    {
      "inputs": [
        {
          "internalType": "address",
          "name": "",
          "type": "address"
        }
      ],
      "name": "providerRatings",
      "outputs": [
        {
          "internalType": "uint256",
          "name": "",
          "type": "uint256"
        }
      ],
      "stateMutability": "view",
      "type": "function",
      "constant": true
    },
    {
      "inputs": [
        {
          "internalType": "address",
          "name": "",
          "type": "address"
        },
        {
          "internalType": "uint256",
          "name": "",
          "type": "uint256"
        }
      ],
      "name": "rentals",
      "outputs": [
        {
          "internalType": "address",
          "name": "provider",
          "type": "address"
        },
        {
          "internalType": "uint256",
          "name": "storageId",
          "type": "uint256"
        },
        {
          "internalType": "uint256",
          "name": "endTime",
          "type": "uint256"
        },
        {
          "internalType": "uint256",
          "name": "escrowAmount",
          "type": "uint256"
        },
        {
          "internalType": "string",
          "name": "cid",
          "type": "string"
        }
      ],
      "stateMutability": "view",
      "type": "function",
      "constant": true
    },
    {
      "inputs": [
        {
          "internalType": "address",
          "name": "",
          "type": "address"
        },
        {
          "internalType": "uint256",
          "name": "",
          "type": "uint256"
        }
      ],
      "name": "storageProviders",
      "outputs": [
        {
          "internalType": "address",
          "name": "provider",
          "type": "address"
        },
        {
          "internalType": "uint256",
          "name": "pricePerDay",
          "type": "uint256"
        },
        {
          "internalType": "uint256",
          "name": "sizeInGB",
          "type": "uint256"
        },
        {
          "internalType": "bool",
          "name": "isAvailable",
          "type": "bool"
        }
      ],
      "stateMutability": "view",
      "type": "function",
      "constant": true
    },
    {
      "inputs": [
        {
          "internalType": "address",
          "name": "",
          "type": "address"
        }
      ],
      "name": "totalReviews",
      "outputs": [
        {
          "internalType": "uint256",
          "name": "",
          "type": "uint256"
        }
      ],
      "stateMutability": "view",
      "type": "function",
      "constant": true
    },
    {
      "inputs": [
        {
          "internalType": "string",
          "name": "_encryptedData",
          "type": "string"
        }
      ],
      "name": "updateEncryptedProfile",
      "outputs": [],
      "stateMutability": "nonpayable",
      "type": "function"
    },
    {
      "inputs": [
        {
          "internalType": "address",
          "name": "_user",
          "type": "address"
        }
      ],
      "name": "getEncryptedProfile",
      "outputs": [
        {
          "internalType": "string",
          "name": "",
          "type": "string"
        }
      ],
      "stateMutability": "view",
      "type": "function",
      "constant": true
    },
    {
      "inputs": [
        {
          "internalType": "uint256",
          "name": "_pricePerDay",
          "type": "uint256"
        },
        {
          "internalType": "uint256",
          "name": "_sizeInGB",
          "type": "uint256"
        }
      ],
      "name": "listStorage",
      "outputs": [],
      "stateMutability": "nonpayable",
      "type": "function"
    },
    {
      "inputs": [
        {
          "internalType": "uint256",
          "name": "_storageId",
          "type": "uint256"
        }
      ],
      "name": "unlistStorage",
      "outputs": [],
      "stateMutability": "nonpayable",
      "type": "function"
    },
    {
      "inputs": [
        {
          "internalType": "address",
          "name": "_provider",
          "type": "address"
        }
      ],
      "name": "getMyListings",
      "outputs": [
        {
          "components": [
            {
              "internalType": "address",
              "name": "provider",
              "type": "address"
            },
            {
              "internalType": "uint256",
              "name": "pricePerDay",
              "type": "uint256"
            },
            {
              "internalType": "uint256",
              "name": "sizeInGB",
              "type": "uint256"
            },
            {
              "internalType": "bool",
              "name": "isAvailable",
              "type": "bool"
            }
          ],
          "internalType": "struct DiskSpaceRental.Storage[]",
          "name": "",
          "type": "tuple[]"
        }
      ],
      "stateMutability": "view",
      "type": "function",
      "constant": true
    },
    {
      "inputs": [
        {
          "internalType": "address",
          "name": "_provider",
          "type": "address"
        }
      ],
      "name": "getTotalListings",
      "outputs": [
        {
          "internalType": "uint256",
          "name": "",
          "type": "uint256"
        }
      ],
      "stateMutability": "view",
      "type": "function",
      "constant": true
    },
    {
      "inputs": [
        {
          "internalType": "address",
          "name": "_provider",
          "type": "address"
        },
        {
          "internalType": "uint256",
          "name": "_storageId",
          "type": "uint256"
        },
        {
          "internalType": "uint256",
          "name": "_rentalDays",
          "type": "uint256"
        },
        {
          "internalType": "string",
          "name": "_cid",
          "type": "string"
        }
      ],
      "name": "rentStorage",
      "outputs": [],
      "stateMutability": "payable",
      "type": "function",
      "payable": true
    },
    {
      "inputs": [
        {
          "internalType": "address",
          "name": "_renter",
          "type": "address"
        }
      ],
      "name": "getMyRentals",
      "outputs": [
        {
          "components": [
            {
              "internalType": "address",
              "name": "provider",
              "type": "address"
            },
            {
              "internalType": "uint256",
              "name": "storageId",
              "type": "uint256"
            },
            {
              "internalType": "uint256",
              "name": "endTime",
              "type": "uint256"
            },
            {
              "internalType": "uint256",
              "name": "escrowAmount",
              "type": "uint256"
            },
            {
              "internalType": "string",
              "name": "cid",
              "type": "string"
            }
          ],
          "internalType": "struct DiskSpaceRental.Rental[]",
          "name": "",
          "type": "tuple[]"
        }
      ],
      "stateMutability": "view",
      "type": "function",
      "constant": true
    },
    {
      "inputs": [
        {
          "internalType": "address",
          "name": "_renter",
          "type": "address"
        },
        {
          "internalType": "uint256",
          "name": "_index",
          "type": "uint256"
        }
      ],
      "name": "getCID",
      "outputs": [
        {
          "internalType": "string",
          "name": "",
          "type": "string"
        }
      ],
      "stateMutability": "view",
      "type": "function",
      "constant": true
    },
    {
      "inputs": [
        {
          "internalType": "uint256",
          "name": "_index",
          "type": "uint256"
        },
        {
          "internalType": "string",
          "name": "_cid",
          "type": "string"
        }
      ],
      "name": "updateCID",
      "outputs": [],
      "stateMutability": "nonpayable",
      "type": "function"
    },
    {
      "inputs": [
        {
          "internalType": "uint256",
          "name": "_index",
          "type": "uint256"
        }
      ],
      "name": "endRental",
      "outputs": [],
      "stateMutability": "nonpayable",
      "type": "function"
    },
    {
      "inputs": [
        {
          "internalType": "uint256",
          "name": "_index",
          "type": "uint256"
        }
      ],
      "name": "requestRefund",
      "outputs": [],
      "stateMutability": "nonpayable",
      "type": "function"
    },
    {
      "inputs": [],
      "name": "withdrawFunds",
      "outputs": [],
      "stateMutability": "nonpayable",
      "type": "function"
    },
    {
      "inputs": [
        {
          "internalType": "address",
          "name": "_provider",
          "type": "address"
        },
        {
          "internalType": "uint8",
          "name": "_rating",
          "type": "uint8"
        }
      ],
      "name": "rateProvider",
      "outputs": [],
      "stateMutability": "nonpayable",
      "type": "function"
    }
  ],
  "bytecode": "0x6080604052662386f26fc1000060075534801561001b57600080fd5b5060016000819055503373ffffffffffffffffffffffffffffffffffffffff167f8ffcdc15a283d706d38281f500270d8b5a656918f555de0913d7455e3e6bc1bf60405160405180910390a261382f806100766000396000f3fe60806040526004361061011f5760003560e01c806386cfb88a116100a0578063ae33525d11610064578063ae33525d1461041f578063b247405914610448578063d8f097ab14610488578063ef0d7334146104c5578063feaeaf62146104e15761011f565b806386cfb88a1461033c57806387d902631461037957806397491d6f146103a25780639ea02e49146103cb578063a4b2409e146103f65761011f565b806347b3d12a116100e757806347b3d12a146102335780635aa3a6bb14610270578063703e2a3a14610299578063796fa9b2146102d657806380ad37a0146103135761011f565b8063090fc58b146101245780630c6d7a0814610165578063190e0def146101a257806324600fc3146101df57806328ac7f2c146101f6575b600080fd5b34801561013057600080fd5b5061014b600480360381019061014691906124b6565b61050a565b60405161015c9594939291906125a4565b60405180910390f35b34801561017157600080fd5b5061018c600480360381019061018791906125fe565b610605565b60405161019991906127cb565b60405180910390f35b3480156101ae57600080fd5b506101c960048036038101906101c491906125fe565b6107a9565b6040516101d691906127ed565b60405180910390f35b3480156101eb57600080fd5b506101f46107f5565b005b34801561020257600080fd5b5061021d600480360381019061021891906125fe565b6109ae565b60405161022a91906127ed565b60405180910390f35b34801561023f57600080fd5b5061025a600480360381019061025591906124b6565b6109c6565b6040516102679190612808565b60405180910390f35b34801561027c57600080fd5b506102976004803603810190610292919061295f565b610b3f565b005b3480156102a557600080fd5b506102c060048036038101906102bb91906125fe565b610bd5565b6040516102cd91906127ed565b60405180910390f35b3480156102e257600080fd5b506102fd60048036038101906102f891906125fe565b610bed565b60405161030a9190612ac7565b60405180910390f35b34801561031f57600080fd5b5061033a60048036038101906103359190612ae9565b610d10565b005b34801561034857600080fd5b50610363600480360381019061035e91906125fe565b610f09565b6040516103709190612808565b60405180910390f35b34801561038557600080fd5b506103a0600480360381019061039b9190612b29565b610fdd565b005b3480156103ae57600080fd5b506103c960048036038101906103c49190612b29565b61131b565b005b3480156103d757600080fd5b506103e061174d565b6040516103ed91906127ed565b60405180910390f35b34801561040257600080fd5b5061041d60048036038101906104189190612b29565b611753565b005b34801561042b57600080fd5b5061044660048036038101906104419190612b8f565b611c33565b005b34801561045457600080fd5b5061046f600480360381019061046a91906124b6565b611d8a565b60405161047f9493929190612bde565b60405180910390f35b34801561049457600080fd5b506104af60048036038101906104aa91906125fe565b611e04565b6040516104bc91906127ed565b60405180910390f35b6104df60048036038101906104da9190612c23565b611e1c565b005b3480156104ed57600080fd5b5061050860048036038101906105039190612ca6565b612269565b005b6002602052816000526040600020818154811061052657600080fd5b9060005260206000209060050201600091509150508060000160009054906101000a900473ffffffffffffffffffffffffffffffffffffffff169080600101549080600201549080600301549080600401805461058290612d31565b80601f01602080910402602001604051908101604052809291908181526020018280546105ae90612d31565b80156105fb5780601f106105d0576101008083540402835291602001916105fb565b820191906000526020600020905b8154815290600101906020018083116105de57829003601f168201915b5050505050905085565b6060600260008373ffffffffffffffffffffffffffffffffffffffff1673ffffffffffffffffffffffffffffffffffffffff168152602001908152602001600020805480602002602001604051908101604052809291908181526020016000905b8282101561079e57838290600052602060002090600502016040518060a00160405290816000820160009054906101000a900473ffffffffffffffffffffffffffffffffffffffff1673ffffffffffffffffffffffffffffffffffffffff1673ffffffffffffffffffffffffffffffffffffffff16815260200160018201548152602001600282015481526020016003820154815260200160048201805461070d90612d31565b80601f016020809104026020016040519081016040528092919081815260200182805461073990612d31565b80156107865780601f1061075b57610100808354040283529160200191610786565b820191906000526020600020905b81548152906001019060200180831161076957829003601f168201915b50505050508152505081526020019060010190610666565b505050509050919050565b6000600160008373ffffffffffffffffffffffffffffffffffffffff1673ffffffffffffffffffffffffffffffffffffffff168152602001908152602001600020805490509050919050565b60026000540361083a576040517f08c379a000000000000000000000000000000000000000000000000000000000815260040161083190612dae565b60405180910390fd5b60026000819055506000600360003373ffffffffffffffffffffffffffffffffffffffff1673ffffffffffffffffffffffffffffffffffffffff168152602001908152602001600020549050600081116108c9576040517f08c379a00000000000000000000000000000000000000000000000000000000081526004016108c090612e1a565b60405180910390fd5b6000600360003373ffffffffffffffffffffffffffffffffffffffff1673ffffffffffffffffffffffffffffffffffffffff168152602001908152602001600020819055503373ffffffffffffffffffffffffffffffffffffffff166108fc829081150290604051600060405180830381858888f19350505050158015610954573d6000803e3d6000fd5b503373ffffffffffffffffffffffffffffffffffffffff167feaff4b37086828766ad3268786972c0cd24259d4c87a80f9d3963a3c3d999b0d8260405161099b91906127ed565b60405180910390a2506001600081905550565b60036020528060005260406000206000915090505481565b6060600260008473ffffffffffffffffffffffffffffffffffffffff1673ffffffffffffffffffffffffffffffffffffffff168152602001908152602001600020805490508210610a4c576040517f08c379a0000000000000000000000000000000000000000000000000000000008152600401610a4390612e86565b60405180910390fd5b600260008473ffffffffffffffffffffffffffffffffffffffff1673ffffffffffffffffffffffffffffffffffffffff1681526020019081526020016000208281548110610a9d57610a9c612ea6565b5b90600052602060002090600502016004018054610ab990612d31565b80601f0160208091040260200160405190810160405280929190818152602001828054610ae590612d31565b8015610b325780601f10610b0757610100808354040283529160200191610b32565b820191906000526020600020905b815481529060010190602001808311610b1557829003601f168201915b5050505050905092915050565b80600660003373ffffffffffffffffffffffffffffffffffffffff1673ffffffffffffffffffffffffffffffffffffffff1681526020019081526020016000206000019081610b8e9190613081565b503373ffffffffffffffffffffffffffffffffffffffff167fbe4ec58a792f909e102ee3d745d0c3b34a4d437a54d903c4db098d31c556422f60405160405180910390a250565b60046020528060005260406000206000915090505481565b6060600160008373ffffffffffffffffffffffffffffffffffffffff1673ffffffffffffffffffffffffffffffffffffffff168152602001908152602001600020805480602002602001604051908101604052809291908181526020016000905b82821015610d0557838290600052602060002090600402016040518060800160405290816000820160009054906101000a900473ffffffffffffffffffffffffffffffffffffffff1673ffffffffffffffffffffffffffffffffffffffff1673ffffffffffffffffffffffffffffffffffffffff16815260200160018201548152602001600282015481526020016003820160009054906101000a900460ff16151515158152505081526020019060010190610c4e565b505050509050919050565b60008111610d53576040517f08c379a0000000000000000000000000000000000000000000000000000000008152600401610d4a9061319f565b60405180910390fd5b60008211610d96576040517f08c379a0000000000000000000000000000000000000000000000000000000008152600401610d8d9061320b565b60405180910390fd5b600160003373ffffffffffffffffffffffffffffffffffffffff1673ffffffffffffffffffffffffffffffffffffffff16815260200190815260200160002060405180608001604052803373ffffffffffffffffffffffffffffffffffffffff16815260200184815260200183815260200160011515815250908060018154018082558091505060019003906000526020600020906004020160009091909190915060008201518160000160006101000a81548173ffffffffffffffffffffffffffffffffffffffff021916908373ffffffffffffffffffffffffffffffffffffffff160217905550602082015181600101556040820151816002015560608201518160030160006101000a81548160ff02191690831515021790555050503373ffffffffffffffffffffffffffffffffffffffff167f5d682a5e507aa5ac81a337e9b2e3aaa322da84b344799fe2d6cb234b73597e1c8383604051610efd92919061322b565b60405180910390a25050565b6060600660008373ffffffffffffffffffffffffffffffffffffffff1673ffffffffffffffffffffffffffffffffffffffff1681526020019081526020016000206000018054610f5890612d31565b80601f0160208091040260200160405190810160405280929190818152602001828054610f8490612d31565b8015610fd15780601f10610fa657610100808354040283529160200191610fd1565b820191906000526020600020905b815481529060010190602001808311610fb457829003601f168201915b50505050509050919050565b600160003373ffffffffffffffffffffffffffffffffffffffff1673ffffffffffffffffffffffffffffffffffffffff168152602001908152602001600020805490508110611061576040517f08c379a0000000000000000000000000000000000000000000000000000000008152600401611058906132a0565b60405180910390fd5b600160003373ffffffffffffffffffffffffffffffffffffffff1673ffffffffffffffffffffffffffffffffffffffff16815260200190815260200160002060018060003373ffffffffffffffffffffffffffffffffffffffff1673ffffffffffffffffffffffffffffffffffffffff168152602001908152602001600020805490506110ee91906132ef565b815481106110ff576110fe612ea6565b5b9060005260206000209060040201600160003373ffffffffffffffffffffffffffffffffffffffff1673ffffffffffffffffffffffffffffffffffffffff168152602001908152602001600020828154811061115e5761115d612ea6565b5b90600052602060002090600402016000820160009054906101000a900473ffffffffffffffffffffffffffffffffffffffff168160000160006101000a81548173ffffffffffffffffffffffffffffffffffffffff021916908373ffffffffffffffffffffffffffffffffffffffff16021790555060018201548160010155600282015481600201556003820160009054906101000a900460ff168160030160006101000a81548160ff021916908315150217905550905050600160003373ffffffffffffffffffffffffffffffffffffffff1673ffffffffffffffffffffffffffffffffffffffff16815260200190815260200160002080548061126657611265613323565b5b6001900381819060005260206000209060040201600080820160006101000a81549073ffffffffffffffffffffffffffffffffffffffff0219169055600182016000905560028201600090556003820160006101000a81549060ff0219169055505090553373ffffffffffffffffffffffffffffffffffffffff167fe79328456dcdc3a32f4265f98fc8c05513712eea6729428d07d1802a93045a088260405161131091906127ed565b60405180910390a250565b600260005403611360576040517f08c379a000000000000000000000000000000000000000000000000000000000815260040161135790612dae565b60405180910390fd5b6002600081905550600260003373ffffffffffffffffffffffffffffffffffffffff1673ffffffffffffffffffffffffffffffffffffffff1681526020019081526020016000208054905081106113ec576040517f08c379a00000000000000000000000000000000000000000000000000000000081526004016113e390612e86565b60405180910390fd5b600260003373ffffffffffffffffffffffffffffffffffffffff1673ffffffffffffffffffffffffffffffffffffffff168152602001908152602001600020818154811061143d5761143c612ea6565b5b906000526020600020906005020160020154421015611491576040517f08c379a00000000000000000000000000000000000000000000000000000000081526004016114889061339e565b60405180910390fd5b600260003373ffffffffffffffffffffffffffffffffffffffff1673ffffffffffffffffffffffffffffffffffffffff1681526020019081526020016000206001600260003373ffffffffffffffffffffffffffffffffffffffff1673ffffffffffffffffffffffffffffffffffffffff1681526020019081526020016000208054905061151f91906132ef565b815481106115305761152f612ea6565b5b9060005260206000209060050201600260003373ffffffffffffffffffffffffffffffffffffffff1673ffffffffffffffffffffffffffffffffffffffff168152602001908152602001600020828154811061158f5761158e612ea6565b5b90600052602060002090600502016000820160009054906101000a900473ffffffffffffffffffffffffffffffffffffffff168160000160006101000a81548173ffffffffffffffffffffffffffffffffffffffff021916908373ffffffffffffffffffffffffffffffffffffffff1602179055506001820154816001015560028201548160020155600382015481600301556004820181600401908161163691906133d4565b50905050600260003373ffffffffffffffffffffffffffffffffffffffff1673ffffffffffffffffffffffffffffffffffffffff16815260200190815260200160002080548061168957611688613323565b5b6001900381819060005260206000209060050201600080820160006101000a81549073ffffffffffffffffffffffffffffffffffffffff02191690556001820160009055600282016000905560038201600090556004820160006116ed91906123b1565b505090553373ffffffffffffffffffffffffffffffffffffffff167fc61b762d39e0775db30552b237ee0aba1a869e6ba29541b155821f53c39b389082600060405161173a9291906134bc565b60405180910390a2600160008190555050565b60075481565b600260005403611798576040517f08c379a000000000000000000000000000000000000000000000000000000000815260040161178f90612dae565b60405180910390fd5b6002600081905550600260003373ffffffffffffffffffffffffffffffffffffffff1673ffffffffffffffffffffffffffffffffffffffff168152602001908152602001600020805490508110611824576040517f08c379a000000000000000000000000000000000000000000000000000000000815260040161181b90612e86565b60405180910390fd5b600260003373ffffffffffffffffffffffffffffffffffffffff1673ffffffffffffffffffffffffffffffffffffffff168152602001908152602001600020818154811061187557611874612ea6565b5b9060005260206000209060050201600201544210156118c9576040517f08c379a00000000000000000000000000000000000000000000000000000000081526004016118c09061339e565b60405180910390fd5b6000600260003373ffffffffffffffffffffffffffffffffffffffff1673ffffffffffffffffffffffffffffffffffffffff168152602001908152602001600020828154811061191c5761191b612ea6565b5b9060005260206000209060050201600301549050600260003373ffffffffffffffffffffffffffffffffffffffff1673ffffffffffffffffffffffffffffffffffffffff1681526020019081526020016000206001600260003373ffffffffffffffffffffffffffffffffffffffff1673ffffffffffffffffffffffffffffffffffffffff168152602001908152602001600020805490506119be91906132ef565b815481106119cf576119ce612ea6565b5b9060005260206000209060050201600260003373ffffffffffffffffffffffffffffffffffffffff1673ffffffffffffffffffffffffffffffffffffffff1681526020019081526020016000208381548110611a2e57611a2d612ea6565b5b90600052602060002090600502016000820160009054906101000a900473ffffffffffffffffffffffffffffffffffffffff168160000160006101000a81548173ffffffffffffffffffffffffffffffffffffffff021916908373ffffffffffffffffffffffffffffffffffffffff16021790555060018201548160010155600282015481600201556003820154816003015560048201816004019081611ad591906133d4565b50905050600260003373ffffffffffffffffffffffffffffffffffffffff1673ffffffffffffffffffffffffffffffffffffffff168152602001908152602001600020805480611b2857611b27613323565b5b6001900381819060005260206000209060050201600080820160006101000a81549073ffffffffffffffffffffffffffffffffffffffff0219169055600182016000905560028201600090556003820160009055600482016000611b8c91906123b1565b505090553373ffffffffffffffffffffffffffffffffffffffff166108fc829081150290604051600060405180830381858888f19350505050158015611bd6573d6000803e3d6000fd5b503373ffffffffffffffffffffffffffffffffffffffff167f93c496f36ecab5f5583f216646cac3acb12a63aeacddb1a9251ceb81f0ee36e78383604051611c1f92919061322b565b60405180910390a250600160008190555050565b60018160ff1610158015611c4b575060058160ff1611155b611c8a576040517f08c379a0000000000000000000000000000000000000000000000000000000008152600401611c8190613531565b60405180910390fd5b8060ff16600460008473ffffffffffffffffffffffffffffffffffffffff1673ffffffffffffffffffffffffffffffffffffffff1681526020019081526020016000206000828254611cdc9190613551565b92505081905550600560008373ffffffffffffffffffffffffffffffffffffffff1673ffffffffffffffffffffffffffffffffffffffff1681526020019081526020016000206000815480929190611d3390613585565b91905055508173ffffffffffffffffffffffffffffffffffffffff167f11abe8074860e0bc30fe1e939af8af88f3e47815a5e6f316d87b12912c56e67282604051611d7e91906135dc565b60405180910390a25050565b60016020528160005260406000208181548110611da657600080fd5b9060005260206000209060040201600091509150508060000160009054906101000a900473ffffffffffffffffffffffffffffffffffffffff16908060010154908060020154908060030160009054906101000a900460ff16905084565b60056020528060005260406000206000915090505481565b600260005403611e61576040517f08c379a0000000000000000000000000000000000000000000000000000000008152600401611e5890612dae565b60405180910390fd5b6002600081905550600160008573ffffffffffffffffffffffffffffffffffffffff1673ffffffffffffffffffffffffffffffffffffffff168152602001908152602001600020805490508310611eed576040517f08c379a0000000000000000000000000000000000000000000000000000000008152600401611ee4906132a0565b60405180910390fd5b6000600160008673ffffffffffffffffffffffffffffffffffffffff1673ffffffffffffffffffffffffffffffffffffffff1681526020019081526020016000208481548110611f4057611f3f612ea6565b5b906000526020600020906004020190508060030160009054906101000a900460ff16611fa1576040517f08c379a0000000000000000000000000000000000000000000000000000000008152600401611f9890613643565b60405180910390fd5b60008311611fe4576040517f08c379a0000000000000000000000000000000000000000000000000000000008152600401611fdb906136af565b60405180910390fd5b6000838260010154611ff691906136cf565b905080341461203a576040517f08c379a00000000000000000000000000000000000000000000000000000000081526004016120319061375d565b60405180910390fd5b6000620151808561204b91906136cf565b426120569190613551565b9050600260003373ffffffffffffffffffffffffffffffffffffffff1673ffffffffffffffffffffffffffffffffffffffff1681526020019081526020016000206040518060a001604052808973ffffffffffffffffffffffffffffffffffffffff16815260200188815260200183815260200184815260200186815250908060018154018082558091505060019003906000526020600020906005020160009091909190915060008201518160000160006101000a81548173ffffffffffffffffffffffffffffffffffffffff021916908373ffffffffffffffffffffffffffffffffffffffff16021790555060208201518160010155604082015181600201556060820151816003015560808201518160040190816121779190613081565b50505060008360030160006101000a81548160ff02191690831515021790555081600360008973ffffffffffffffffffffffffffffffffffffffff1673ffffffffffffffffffffffffffffffffffffffff16815260200190815260200160002060008282546121e69190613551565b925050819055508673ffffffffffffffffffffffffffffffffffffffff163373ffffffffffffffffffffffffffffffffffffffff167f5f8e9b40134381ef41679ce70b254b34a334c8b8961f5da9635a42cb686e08f388888589604051612250949392919061377d565b60405180910390a3505050600160008190555050505050565b600260003373ffffffffffffffffffffffffffffffffffffffff1673ffffffffffffffffffffffffffffffffffffffff1681526020019081526020016000208054905082106122ed576040517f08c379a00000000000000000000000000000000000000000000000000000000081526004016122e490612e86565b60405180910390fd5b80600260003373ffffffffffffffffffffffffffffffffffffffff1673ffffffffffffffffffffffffffffffffffffffff168152602001908152602001600020838154811061233f5761233e612ea6565b5b9060005260206000209060050201600401908161235c9190613081565b503373ffffffffffffffffffffffffffffffffffffffff167f239aa29e2cb919fe7f6dae64c00bab69f4216532270ab6f31013b1563c05ac9183836040516123a59291906137c9565b60405180910390a25050565b5080546123bd90612d31565b6000825580601f106123cf57506123ee565b601f0160209004906000526020600020908101906123ed91906123f1565b5b50565b5b8082111561240a5760008160009055506001016123f2565b5090565b6000604051905090565b600080fd5b600080fd5b600073ffffffffffffffffffffffffffffffffffffffff82169050919050565b600061244d82612422565b9050919050565b61245d81612442565b811461246857600080fd5b50565b60008135905061247a81612454565b92915050565b6000819050919050565b61249381612480565b811461249e57600080fd5b50565b6000813590506124b08161248a565b92915050565b600080604083850312156124cd576124cc612418565b5b60006124db8582860161246b565b92505060206124ec858286016124a1565b9150509250929050565b6124ff81612442565b82525050565b61250e81612480565b82525050565b600081519050919050565b600082825260208201905092915050565b60005b8381101561254e578082015181840152602081019050612533565b60008484015250505050565b6000601f19601f8301169050919050565b600061257682612514565b612580818561251f565b9350612590818560208601612530565b6125998161255a565b840191505092915050565b600060a0820190506125b960008301886124f6565b6125c66020830187612505565b6125d36040830186612505565b6125e06060830185612505565b81810360808301526125f2818461256b565b90509695505050505050565b60006020828403121561261457612613612418565b5b60006126228482850161246b565b91505092915050565b600081519050919050565b600082825260208201905092915050565b6000819050602082019050919050565b61266081612442565b82525050565b61266f81612480565b82525050565b600082825260208201905092915050565b600061269182612514565b61269b8185612675565b93506126ab818560208601612530565b6126b48161255a565b840191505092915050565b600060a0830160008301516126d76000860182612657565b5060208301516126ea6020860182612666565b5060408301516126fd6040860182612666565b5060608301516127106060860182612666565b50608083015184820360808601526127288282612686565b9150508091505092915050565b600061274183836126bf565b905092915050565b6000602082019050919050565b60006127618261262b565b61276b8185612636565b93508360208202850161277d85612647565b8060005b858110156127b9578484038952815161279a8582612735565b94506127a583612749565b925060208a01995050600181019050612781565b50829750879550505050505092915050565b600060208201905081810360008301526127e58184612756565b905092915050565b60006020820190506128026000830184612505565b92915050565b60006020820190508181036000830152612822818461256b565b905092915050565b600080fd5b600080fd5b7f4e487b7100000000000000000000000000000000000000000000000000000000600052604160045260246000fd5b61286c8261255a565b810181811067ffffffffffffffff8211171561288b5761288a612834565b5b80604052505050565b600061289e61240e565b90506128aa8282612863565b919050565b600067ffffffffffffffff8211156128ca576128c9612834565b5b6128d38261255a565b9050602081019050919050565b82818337600083830152505050565b60006129026128fd846128af565b612894565b90508281526020810184848401111561291e5761291d61282f565b5b6129298482856128e0565b509392505050565b600082601f8301126129465761294561282a565b5b81356129568482602086016128ef565b91505092915050565b60006020828403121561297557612974612418565b5b600082013567ffffffffffffffff8111156129935761299261241d565b5b61299f84828501612931565b91505092915050565b600081519050919050565b600082825260208201905092915050565b6000819050602082019050919050565b60008115159050919050565b6129e9816129d4565b82525050565b608082016000820151612a056000850182612657565b506020820151612a186020850182612666565b506040820151612a2b6040850182612666565b506060820151612a3e60608501826129e0565b50505050565b6000612a5083836129ef565b60808301905092915050565b6000602082019050919050565b6000612a74826129a8565b612a7e81856129b3565b9350612a89836129c4565b8060005b83811015612aba578151612aa18882612a44565b9750612aac83612a5c565b925050600181019050612a8d565b5085935050505092915050565b60006020820190508181036000830152612ae18184612a69565b905092915050565b60008060408385031215612b0057612aff612418565b5b6000612b0e858286016124a1565b9250506020612b1f858286016124a1565b9150509250929050565b600060208284031215612b3f57612b3e612418565b5b6000612b4d848285016124a1565b91505092915050565b600060ff82169050919050565b612b6c81612b56565b8114612b7757600080fd5b50565b600081359050612b8981612b63565b92915050565b60008060408385031215612ba657612ba5612418565b5b6000612bb48582860161246b565b9250506020612bc585828601612b7a565b9150509250929050565b612bd8816129d4565b82525050565b6000608082019050612bf360008301876124f6565b612c006020830186612505565b612c0d6040830185612505565b612c1a6060830184612bcf565b95945050505050565b60008060008060808587031215612c3d57612c3c612418565b5b6000612c4b8782880161246b565b9450506020612c5c878288016124a1565b9350506040612c6d878288016124a1565b925050606085013567ffffffffffffffff811115612c8e57612c8d61241d565b5b612c9a87828801612931565b91505092959194509250565b60008060408385031215612cbd57612cbc612418565b5b6000612ccb858286016124a1565b925050602083013567ffffffffffffffff811115612cec57612ceb61241d565b5b612cf885828601612931565b9150509250929050565b7f4e487b7100000000000000000000000000000000000000000000000000000000600052602260045260246000fd5b60006002820490506001821680612d4957607f821691505b602082108103612d5c57612d5b612d02565b5b50919050565b7f5265656e7472616e637947756172643a207265656e7472616e742063616c6c00600082015250565b6000612d98601f8361251f565b9150612da382612d62565b602082019050919050565b60006020820190508181036000830152612dc781612d8b565b9050919050565b7f4e6f206561726e696e677320617661696c61626c650000000000000000000000600082015250565b6000612e0460158361251f565b9150612e0f82612dce565b602082019050919050565b60006020820190508181036000830152612e3381612df7565b9050919050565b7f496e76616c69642072656e74616c20696e646578000000000000000000000000600082015250565b6000612e7060148361251f565b9150612e7b82612e3a565b602082019050919050565b60006020820190508181036000830152612e9f81612e63565b9050919050565b7f4e487b7100000000000000000000000000000000000000000000000000000000600052603260045260246000fd5b60008190508160005260206000209050919050565b60006020601f8301049050919050565b600082821b905092915050565b600060088302612f377fffffffffffffffffffffffffffffffffffffffffffffffffffffffffffffffff82612efa565b612f418683612efa565b95508019841693508086168417925050509392505050565b6000819050919050565b6000612f7e612f79612f7484612480565b612f59565b612480565b9050919050565b6000819050919050565b612f9883612f63565b612fac612fa482612f85565b848454612f07565b825550505050565b600090565b612fc1612fb4565b612fcc818484612f8f565b505050565b5b81811015612ff057612fe5600082612fb9565b600181019050612fd2565b5050565b601f8211156130355761300681612ed5565b61300f84612eea565b8101602085101561301e578190505b61303261302a85612eea565b830182612fd1565b50505b505050565b600082821c905092915050565b60006130586000198460080261303a565b1980831691505092915050565b60006130718383613047565b9150826002028217905092915050565b61308a82612514565b67ffffffffffffffff8111156130a3576130a2612834565b5b6130ad8254612d31565b6130b8828285612ff4565b600060209050601f8311600181146130eb57600084156130d9578287015190505b6130e38582613065565b86555061314b565b601f1984166130f986612ed5565b60005b82811015613121578489015182556001820191506020850194506020810190506130fc565b8683101561313e578489015161313a601f891682613047565b8355505b6001600288020188555050505b505050505050565b7f53697a65206d7573742062652067726561746572207468616e207a65726f0000600082015250565b6000613189601e8361251f565b915061319482613153565b602082019050919050565b600060208201905081810360008301526131b88161317c565b9050919050565b7f5072696365206d7573742062652067726561746572207468616e207a65726f00600082015250565b60006131f5601f8361251f565b9150613200826131bf565b602082019050919050565b60006020820190508181036000830152613224816131e8565b9050919050565b60006040820190506132406000830185612505565b61324d6020830184612505565b9392505050565b7f496e76616c69642073746f726167652049440000000000000000000000000000600082015250565b600061328a60128361251f565b915061329582613254565b602082019050919050565b600060208201905081810360008301526132b98161327d565b9050919050565b7f4e487b7100000000000000000000000000000000000000000000000000000000600052601160045260246000fd5b60006132fa82612480565b915061330583612480565b925082820390508181111561331d5761331c6132c0565b5b92915050565b7f4e487b7100000000000000000000000000000000000000000000000000000000600052603160045260246000fd5b7f52656e74616c20706572696f64206e6f74206f76657200000000000000000000600082015250565b600061338860168361251f565b915061339382613352565b602082019050919050565b600060208201905081810360008301526133b78161337b565b9050919050565b6000815490506133cd81612d31565b9050919050565b8181036133e25750506134ba565b6133eb826133be565b67ffffffffffffffff81111561340457613403612834565b5b61340e8254612d31565b613419828285612ff4565b6000601f8311600181146134485760008415613436578287015490505b6134408582613065565b8655506134b3565b601f19841661345687612ed5565b965061346186612ed5565b60005b8281101561348957848901548255600182019150600185019450602081019050613464565b868310156134a657848901546134a2601f891682613047565b8355505b6001600288020188555050505b5050505050505b565b60006040820190506134d16000830185612505565b6134de6020830184612bcf565b9392505050565b7f526174696e67206d757374206265206265747765656e203120616e6420350000600082015250565b600061351b601e8361251f565b9150613526826134e5565b602082019050919050565b6000602082019050818103600083015261354a8161350e565b9050919050565b600061355c82612480565b915061356783612480565b925082820190508082111561357f5761357e6132c0565b5b92915050565b600061359082612480565b91507fffffffffffffffffffffffffffffffffffffffffffffffffffffffffffffffff82036135c2576135c16132c0565b5b600182019050919050565b6135d681612b56565b82525050565b60006020820190506135f160008301846135cd565b92915050565b7f53746f72616765206e6f7420617661696c61626c650000000000000000000000600082015250565b600061362d60158361251f565b9150613638826135f7565b602082019050919050565b6000602082019050818103600083015261365c81613620565b9050919050565b7f4d7573742072656e7420666f72206174206c65617374206f6e65206461790000600082015250565b6000613699601e8361251f565b91506136a482613663565b602082019050919050565b600060208201905081810360008301526136c88161368c565b9050919050565b60006136da82612480565b91506136e583612480565b92508282026136f381612480565b9150828204841483151761370a576137096132c0565b5b5092915050565b7f496e636f7272656374207061796d656e7420616d6f756e740000000000000000600082015250565b600061374760188361251f565b915061375282613711565b602082019050919050565b600060208201905081810360008301526137768161373a565b9050919050565b60006080820190506137926000830187612505565b61379f6020830186612505565b6137ac6040830185612505565b81810360608301526137be818461256b565b905095945050505050565b60006040820190506137de6000830185612505565b81810360208301526137f0818461256b565b9050939250505056fea2646970667358221220a2525304685244572b2c445416121874ee96244a7c8ed5cf22f081f639b74cf064736f6c63430008130033",
  "immutableReferences": {},
  "source": "// SPDX-License-Identifier: MIT\r\npragma solidity ^0.8.19;\r\n\r\nimport \"./ReentrancyGuard.sol\";\r\n\r\ncontract DiskSpaceRental is ReentrancyGuard {\r\n    // --- EVENTS ---\r\n    event ContractDeployed(address indexed deployer);\r\n    event StorageListed(address indexed provider, uint256 pricePerDay, uint256 sizeInGB);\r\n    event StorageUnlisted(address indexed provider, uint256 storageId);\r\n    event StorageRented(address indexed renter, address indexed provider, uint256 storageId, uint256 rentalDays, uint256 endTime, string cid);\r\n    event RentalEnded(address indexed renter, uint256 storageId, bool refunded);\r\n    event CIDUpdated(address indexed renter, uint256 storageId, string cid);\r\n    event FundsWithdrawn(address indexed provider, uint256 amount);\r\n    event ProviderRated(address indexed provider, uint8 rating);\r\n    event RefundIssued(address indexed renter, uint256 storageId, uint256 amount);\r\n    event ProfileUpdated(address indexed user);\r\n\r\n    // --- STRUCTS ---\r\n    struct Storage {\r\n        address provider;\r\n        uint256 pricePerDay;\r\n        uint256 sizeInGB;\r\n        bool isAvailable;\r\n    }\r\n\r\n    struct Rental {\r\n        address provider;\r\n        uint256 storageId;\r\n        uint256 endTime;\r\n        uint256 escrowAmount;\r\n        string cid;\r\n    }\r\n\r\n    struct EncryptedProfile {\r\n        string encryptedData; // Encrypted JSON (displayName, avatarCID, bio)\r\n    }\r\n\r\n    // --- STATE ---\r\n    mapping(address => Storage[]) public storageProviders;\r\n    mapping(address => Rental[]) public rentals;\r\n    mapping(address => uint256) public providerBalances;\r\n    mapping(address => uint256) public providerRatings;\r\n    mapping(address => uint256) public totalReviews;\r\n    mapping(address => EncryptedProfile) private profiles;\r\n\r\n    uint256 public basePricePerGB = 0.01 ether;\r\n\r\n    constructor() {\r\n        emit ContractDeployed(msg.sender);\r\n    }\r\n\r\n    // --- PROFILE FUNCTIONS ---\r\n    function updateEncryptedProfile(string memory _encryptedData) external {\r\n        profiles[msg.sender].encryptedData = _encryptedData;\r\n        emit ProfileUpdated(msg.sender);\r\n    }\r\n\r\n    function getEncryptedProfile(address _user) external view returns (string memory) {\r\n        return profiles[_user].encryptedData;\r\n    }\r\n\r\n    // --- STORAGE LISTING ---\r\n    function listStorage(uint256 _pricePerDay, uint256 _sizeInGB) external {\r\n        require(_sizeInGB > 0, \"Size must be greater than zero\");\r\n        require(_pricePerDay > 0, \"Price must be greater than zero\");\r\n\r\n        storageProviders[msg.sender].push(Storage({\r\n            provider: msg.sender,\r\n            pricePerDay: _pricePerDay,\r\n            sizeInGB: _sizeInGB,\r\n            isAvailable: true\r\n        }));\r\n\r\n        emit StorageListed(msg.sender, _pricePerDay, _sizeInGB);\r\n    }\r\n\r\n    function unlistStorage(uint256 _storageId) external {\r\n        require(_storageId < storageProviders[msg.sender].length, \"Invalid storage ID\");\r\n\r\n        // Swap with last and remove\r\n        storageProviders[msg.sender][_storageId] = storageProviders[msg.sender][storageProviders[msg.sender].length - 1];\r\n        storageProviders[msg.sender].pop();\r\n\r\n        emit StorageUnlisted(msg.sender, _storageId);\r\n    }\r\n\r\n    function getMyListings(address _provider) external view returns (Storage[] memory) {\r\n        return storageProviders[_provider];\r\n    }\r\n\r\n    function getTotalListings(address _provider) external view returns (uint256) {\r\n        return storageProviders[_provider].length;\r\n    }\r\n\r\n    // --- RENTING ---\r\n    function rentStorage(address _provider, uint256 _storageId, uint256 _rentalDays, string memory _cid) external payable nonReentrant {\r\n        require(_storageId < storageProviders[_provider].length, \"Invalid storage ID\");\r\n        Storage storage providerStorage = storageProviders[_provider][_storageId];\r\n\r\n        require(providerStorage.isAvailable, \"Storage not available\");\r\n        require(_rentalDays > 0, \"Must rent for at least one day\");\r\n\r\n        uint256 totalCost = providerStorage.pricePerDay * _rentalDays;\r\n        require(msg.value == totalCost, \"Incorrect payment amount\");\r\n\r\n        uint256 rentalEndTime = block.timestamp + (_rentalDays * 1 days);\r\n\r\n        rentals[msg.sender].push(Rental({\r\n            provider: _provider,\r\n            storageId: _storageId,\r\n            endTime: rentalEndTime,\r\n            escrowAmount: totalCost,\r\n            cid: _cid\r\n        }));\r\n\r\n        providerStorage.isAvailable = false;\r\n        providerBalances[_provider] += totalCost;\r\n\r\n        emit StorageRented(msg.sender, _provider, _storageId, _rentalDays, rentalEndTime, _cid);\r\n    }\r\n\r\n    function getMyRentals(address _renter) external view returns (Rental[] memory) {\r\n        return rentals[_renter];\r\n    }\r\n\r\n    function getCID(address _renter, uint256 _index) public view returns (string memory) {\r\n        require(_index < rentals[_renter].length, \"Invalid rental index\");\r\n        return rentals[_renter][_index].cid;\r\n    }\r\n\r\n    function updateCID(uint256 _index, string memory _cid) external {\r\n        require(_index < rentals[msg.sender].length, \"Invalid rental index\");\r\n        rentals[msg.sender][_index].cid = _cid;\r\n        emit CIDUpdated(msg.sender, _index, _cid);\r\n    }\r\n\r\n    function endRental(uint256 _index) external nonReentrant {\r\n        require(_index < rentals[msg.sender].length, \"Invalid rental index\");\r\n        require(block.timestamp >= rentals[msg.sender][_index].endTime, \"Rental period not over\");\r\n\r\n        rentals[msg.sender][_index] = rentals[msg.sender][rentals[msg.sender].length - 1];\r\n        rentals[msg.sender].pop();\r\n\r\n        emit RentalEnded(msg.sender, _index, false);\r\n    }\r\n\r\n    function requestRefund(uint256 _index) external nonReentrant {\r\n        require(_index < rentals[msg.sender].length, \"Invalid rental index\");\r\n        require(block.timestamp >= rentals[msg.sender][_index].endTime, \"Rental period not over\");\r\n\r\n        uint256 refundAmount = rentals[msg.sender][_index].escrowAmount;\r\n\r\n        rentals[msg.sender][_index] = rentals[msg.sender][rentals[msg.sender].length - 1];\r\n        rentals[msg.sender].pop();\r\n        payable(msg.sender).transfer(refundAmount);\r\n\r\n        emit RefundIssued(msg.sender, _index, refundAmount);\r\n    }\r\n\r\n    function withdrawFunds() external nonReentrant {\r\n        uint256 balance = providerBalances[msg.sender];\r\n        require(balance > 0, \"No earnings available\");\r\n\r\n        providerBalances[msg.sender] = 0;\r\n        payable(msg.sender).transfer(balance);\r\n\r\n        emit FundsWithdrawn(msg.sender, balance);\r\n    }\r\n\r\n    // --- RATING ---\r\n    function rateProvider(address _provider, uint8 _rating) external {\r\n        require(_rating >= 1 && _rating <= 5, \"Rating must be between 1 and 5\");\r\n\r\n        providerRatings[_provider] += _rating;\r\n        totalReviews[_provider]++;\r\n        emit ProviderRated(_provider, _rating);\r\n    }\r\n}\r\n",
  "sourcePath": "C:\\Users\\dattu\\OneDrive\\Desktop\\poject code\\PBL@\\contracts\\DiskSpaceRental.sol",
  "compiler": {
    "name": "solc",
    "version": "0.8.19+commit.7dd6d404.Emscripten.clang"
  },
  "schemaVersion": "3.4.16",
  "updatedAt": "2025-04-17T04:49:39.487Z",
  "networkType": "ethereum",
  "devdoc": {
    "kind": "dev",
    "methods": {},
    "version": 1
  },
  "userdoc": {
    "kind": "user",
    "methods": {},
    "version": 1
  }
}