{
  "contractName": "DiskSpaceRental",
  "abi": [
    {
      "inputs": [],
      "stateMutability": "nonpayable",
      "type": "constructor"
    },
    {
      "anonymous": false,
      "inputs": [
        {
          "indexed": true,
          "internalType": "address",
          "name": "renter",
          "type": "address"
        },
        {
          "indexed": false,
          "internalType": "uint256",
          "name": "storageId",
          "type": "uint256"
        },
        {
          "indexed": false,
          "internalType": "string",
          "name": "cid",
          "type": "string"
        }
      ],
      "name": "CIDUpdated",
      "type": "event"
    },
    {
      "anonymous": false,
      "inputs": [
        {
          "indexed": true,
          "internalType": "address",
          "name": "deployer",
          "type": "address"
        }
      ],
      "name": "ContractDeployed",
      "type": "event"
    },
    {
      "anonymous": false,
      "inputs": [
        {
          "indexed": true,
          "internalType": "address",
          "name": "provider",
          "type": "address"
        },
        {
          "indexed": false,
          "internalType": "uint256",
          "name": "amount",
          "type": "uint256"
        }
      ],
      "name": "FundsWithdrawn",
      "type": "event"
    },
    {
      "anonymous": false,
      "inputs": [
        {
          "indexed": true,
          "internalType": "address",
          "name": "user",
          "type": "address"
        }
      ],
      "name": "ProfileUpdated",
      "type": "event"
    },
    {
      "anonymous": false,
      "inputs": [
        {
          "indexed": true,
          "internalType": "address",
          "name": "provider",
          "type": "address"
        },
        {
          "indexed": false,
          "internalType": "uint8",
          "name": "rating",
          "type": "uint8"
        }
      ],
      "name": "ProviderRated",
      "type": "event"
    },
    {
      "anonymous": false,
      "inputs": [
        {
          "indexed": true,
          "internalType": "address",
          "name": "renter",
          "type": "address"
        },
        {
          "indexed": false,
          "internalType": "uint256",
          "name": "storageId",
          "type": "uint256"
        },
        {
          "indexed": false,
          "internalType": "uint256",
          "name": "amount",
          "type": "uint256"
        }
      ],
      "name": "RefundIssued",
      "type": "event"
    },
    {
      "anonymous": false,
      "inputs": [
        {
          "indexed": true,
          "internalType": "address",
          "name": "renter",
          "type": "address"
        },
        {
          "indexed": false,
          "internalType": "uint256",
          "name": "storageId",
          "type": "uint256"
        },
        {
          "indexed": false,
          "internalType": "bool",
          "name": "refunded",
          "type": "bool"
        }
      ],
      "name": "RentalEnded",
      "type": "event"
    },
    {
      "anonymous": false,
      "inputs": [
        {
          "indexed": true,
          "internalType": "address",
          "name": "provider",
          "type": "address"
        },
        {
          "indexed": false,
          "internalType": "uint256",
          "name": "pricePerDay",
          "type": "uint256"
        },
        {
          "indexed": false,
          "internalType": "uint256",
          "name": "sizeInGB",
          "type": "uint256"
        }
      ],
      "name": "StorageListed",
      "type": "event"
    },
    {
      "anonymous": false,
      "inputs": [
        {
          "indexed": true,
          "internalType": "address",
          "name": "renter",
          "type": "address"
        },
        {
          "indexed": true,
          "internalType": "address",
          "name": "provider",
          "type": "address"
        },
        {
          "indexed": false,
          "internalType": "uint256",
          "name": "storageId",
          "type": "uint256"
        },
        {
          "indexed": false,
          "internalType": "uint256",
          "name": "rentalDays",
          "type": "uint256"
        },
        {
          "indexed": false,
          "internalType": "uint256",
          "name": "endTime",
          "type": "uint256"
        },
        {
          "indexed": false,
          "internalType": "string",
          "name": "cid",
          "type": "string"
        }
      ],
      "name": "StorageRented",
      "type": "event"
    },
    {
      "anonymous": false,
      "inputs": [
        {
          "indexed": true,
          "internalType": "address",
          "name": "provider",
          "type": "address"
        },
        {
          "indexed": false,
          "internalType": "uint256",
          "name": "storageId",
          "type": "uint256"
        }
      ],
      "name": "StorageUnlisted",
      "type": "event"
    },
    {
      "inputs": [
        {
          "internalType": "uint256",
          "name": "",
          "type": "uint256"
        }
      ],
      "name": "allProviders",
      "outputs": [
        {
          "internalType": "address",
          "name": "",
          "type": "address"
        }
      ],
      "stateMutability": "view",
      "type": "function",
      "constant": true
    },
    {
      "inputs": [],
      "name": "basePricePerGB",
      "outputs": [
        {
          "internalType": "uint256",
          "name": "",
          "type": "uint256"
        }
      ],
      "stateMutability": "view",
      "type": "function",
      "constant": true
    },
    {
      "inputs": [
        {
          "internalType": "address",
          "name": "",
          "type": "address"
        }
      ],
      "name": "providerBalances",
      "outputs": [
        {
          "internalType": "uint256",
          "name": "",
          "type": "uint256"
        }
      ],
      "stateMutability": "view",
      "type": "function",
      "constant": true
    },
    {
      "inputs": [
        {
          "internalType": "address",
          "name": "",
          "type": "address"
        }
      ],
      "name": "providerRatings",
      "outputs": [
        {
          "internalType": "uint256",
          "name": "",
          "type": "uint256"
        }
      ],
      "stateMutability": "view",
      "type": "function",
      "constant": true
    },
    {
      "inputs": [
        {
          "internalType": "address",
          "name": "",
          "type": "address"
        },
        {
          "internalType": "uint256",
          "name": "",
          "type": "uint256"
        }
      ],
      "name": "rentals",
      "outputs": [
        {
          "internalType": "address",
          "name": "provider",
          "type": "address"
        },
        {
          "internalType": "uint256",
          "name": "storageId",
          "type": "uint256"
        },
        {
          "internalType": "uint256",
          "name": "endTime",
          "type": "uint256"
        },
        {
          "internalType": "uint256",
          "name": "escrowAmount",
          "type": "uint256"
        },
        {
          "internalType": "string",
          "name": "cid",
          "type": "string"
        }
      ],
      "stateMutability": "view",
      "type": "function",
      "constant": true
    },
    {
      "inputs": [
        {
          "internalType": "address",
          "name": "",
          "type": "address"
        },
        {
          "internalType": "uint256",
          "name": "",
          "type": "uint256"
        }
      ],
      "name": "storageProviders",
      "outputs": [
        {
          "internalType": "address",
          "name": "provider",
          "type": "address"
        },
        {
          "internalType": "uint256",
          "name": "pricePerDay",
          "type": "uint256"
        },
        {
          "internalType": "uint256",
          "name": "sizeInGB",
          "type": "uint256"
        },
        {
          "internalType": "bool",
          "name": "isAvailable",
          "type": "bool"
        }
      ],
      "stateMutability": "view",
      "type": "function",
      "constant": true
    },
    {
      "inputs": [
        {
          "internalType": "address",
          "name": "",
          "type": "address"
        }
      ],
      "name": "totalReviews",
      "outputs": [
        {
          "internalType": "uint256",
          "name": "",
          "type": "uint256"
        }
      ],
      "stateMutability": "view",
      "type": "function",
      "constant": true
    },
    {
      "inputs": [
        {
          "internalType": "string",
          "name": "_encryptedData",
          "type": "string"
        }
      ],
      "name": "updateEncryptedProfile",
      "outputs": [],
      "stateMutability": "nonpayable",
      "type": "function"
    },
    {
      "inputs": [
        {
          "internalType": "address",
          "name": "_user",
          "type": "address"
        }
      ],
      "name": "getEncryptedProfile",
      "outputs": [
        {
          "internalType": "string",
          "name": "",
          "type": "string"
        }
      ],
      "stateMutability": "view",
      "type": "function",
      "constant": true
    },
    {
      "inputs": [
        {
          "internalType": "uint256",
          "name": "_pricePerDay",
          "type": "uint256"
        },
        {
          "internalType": "uint256",
          "name": "_sizeInGB",
          "type": "uint256"
        }
      ],
      "name": "listStorage",
      "outputs": [],
      "stateMutability": "nonpayable",
      "type": "function"
    },
    {
      "inputs": [],
      "name": "getAllAvailableStorage",
      "outputs": [
        {
          "internalType": "address[]",
          "name": "providers",
          "type": "address[]"
        },
        {
          "internalType": "uint256[]",
          "name": "storageIds",
          "type": "uint256[]"
        },
        {
          "internalType": "uint256[]",
          "name": "prices",
          "type": "uint256[]"
        },
        {
          "internalType": "uint256[]",
          "name": "sizes",
          "type": "uint256[]"
        }
      ],
      "stateMutability": "view",
      "type": "function",
      "constant": true
    },
    {
      "inputs": [
        {
          "internalType": "uint256",
          "name": "_storageId",
          "type": "uint256"
        }
      ],
      "name": "unlistStorage",
      "outputs": [],
      "stateMutability": "nonpayable",
      "type": "function"
    },
    {
      "inputs": [
        {
          "internalType": "address",
          "name": "_provider",
          "type": "address"
        }
      ],
      "name": "getMyListings",
      "outputs": [
        {
          "components": [
            {
              "internalType": "address",
              "name": "provider",
              "type": "address"
            },
            {
              "internalType": "uint256",
              "name": "pricePerDay",
              "type": "uint256"
            },
            {
              "internalType": "uint256",
              "name": "sizeInGB",
              "type": "uint256"
            },
            {
              "internalType": "bool",
              "name": "isAvailable",
              "type": "bool"
            }
          ],
          "internalType": "struct DiskSpaceRental.Storage[]",
          "name": "",
          "type": "tuple[]"
        }
      ],
      "stateMutability": "view",
      "type": "function",
      "constant": true
    },
    {
      "inputs": [
        {
          "internalType": "address",
          "name": "_provider",
          "type": "address"
        }
      ],
      "name": "getTotalListings",
      "outputs": [
        {
          "internalType": "uint256",
          "name": "",
          "type": "uint256"
        }
      ],
      "stateMutability": "view",
      "type": "function",
      "constant": true
    },
    {
      "inputs": [
        {
          "internalType": "address",
          "name": "_provider",
          "type": "address"
        },
        {
          "internalType": "uint256",
          "name": "_storageId",
          "type": "uint256"
        },
        {
          "internalType": "uint256",
          "name": "_rentalDays",
          "type": "uint256"
        },
        {
          "internalType": "string",
          "name": "_cid",
          "type": "string"
        }
      ],
      "name": "rentStorage",
      "outputs": [],
      "stateMutability": "payable",
      "type": "function",
      "payable": true
    },
    {
      "inputs": [
        {
          "internalType": "address",
          "name": "_renter",
          "type": "address"
        }
      ],
      "name": "getMyRentals",
      "outputs": [
        {
          "components": [
            {
              "internalType": "address",
              "name": "provider",
              "type": "address"
            },
            {
              "internalType": "uint256",
              "name": "storageId",
              "type": "uint256"
            },
            {
              "internalType": "uint256",
              "name": "endTime",
              "type": "uint256"
            },
            {
              "internalType": "uint256",
              "name": "escrowAmount",
              "type": "uint256"
            },
            {
              "internalType": "string",
              "name": "cid",
              "type": "string"
            }
          ],
          "internalType": "struct DiskSpaceRental.Rental[]",
          "name": "",
          "type": "tuple[]"
        }
      ],
      "stateMutability": "view",
      "type": "function",
      "constant": true
    },
    {
      "inputs": [
        {
          "internalType": "address",
          "name": "_renter",
          "type": "address"
        },
        {
          "internalType": "uint256",
          "name": "_index",
          "type": "uint256"
        }
      ],
      "name": "getCID",
      "outputs": [
        {
          "internalType": "string",
          "name": "",
          "type": "string"
        }
      ],
      "stateMutability": "view",
      "type": "function",
      "constant": true
    },
    {
      "inputs": [
        {
          "internalType": "uint256",
          "name": "_index",
          "type": "uint256"
        },
        {
          "internalType": "string",
          "name": "_cid",
          "type": "string"
        }
      ],
      "name": "updateCID",
      "outputs": [],
      "stateMutability": "nonpayable",
      "type": "function"
    },
    {
      "inputs": [
        {
          "internalType": "uint256",
          "name": "_index",
          "type": "uint256"
        }
      ],
      "name": "endRental",
      "outputs": [],
      "stateMutability": "nonpayable",
      "type": "function"
    },
    {
      "inputs": [
        {
          "internalType": "uint256",
          "name": "_index",
          "type": "uint256"
        }
      ],
      "name": "requestRefund",
      "outputs": [],
      "stateMutability": "nonpayable",
      "type": "function"
    },
    {
      "inputs": [],
      "name": "withdrawFunds",
      "outputs": [],
      "stateMutability": "nonpayable",
      "type": "function"
    },
    {
      "inputs": [
        {
          "internalType": "address",
          "name": "_provider",
          "type": "address"
        },
        {
          "internalType": "uint8",
          "name": "_rating",
          "type": "uint8"
        }
      ],
      "name": "rateProvider",
      "outputs": [],
      "stateMutability": "nonpayable",
      "type": "function"
    }
  ],
  "bytecode": "0x6080604052662386f26fc1000060085534801561001b57600080fd5b5060016000819055503373ffffffffffffffffffffffffffffffffffffffff167f8ffcdc15a283d706d38281f500270d8b5a656918f555de0913d7455e3e6bc1bf60405160405180910390a2614153806100766000396000f3fe6080604052600436106101355760003560e01c806380ad37a0116100ab578063a4b2409e1161006f578063a4b2409e14610477578063ae33525d146104a0578063b2474059146104c9578063d8f097ab14610509578063ef0d733414610546578063feaeaf621461056257610135565b806380ad37a01461039457806386cfb88a146103bd57806387d90263146103fa57806397491d6f146104235780639ea02e491461044c57610135565b806328ac7f2c116100fd57806328ac7f2c1461023a57806347b3d12a146102775780635aa3a6bb146102b45780635ce13120146102dd578063703e2a3a1461031a578063796fa9b21461035757610135565b806307216be81461013a578063090fc58b146101685780630c6d7a08146101a9578063190e0def146101e657806324600fc314610223575b600080fd5b34801561014657600080fd5b5061014f61058b565b60405161015f9493929190612d10565b60405180910390f35b34801561017457600080fd5b5061018f600480360381019061018a9190612ddd565b610b67565b6040516101a0959493929190612ecb565b60405180910390f35b3480156101b557600080fd5b506101d060048036038101906101cb9190612f25565b610c62565b6040516101dd91906130d4565b60405180910390f35b3480156101f257600080fd5b5061020d60048036038101906102089190612f25565b610e06565b60405161021a91906130f6565b60405180910390f35b34801561022f57600080fd5b50610238610e52565b005b34801561024657600080fd5b50610261600480360381019061025c9190612f25565b61100b565b60405161026e91906130f6565b60405180910390f35b34801561028357600080fd5b5061029e60048036038101906102999190612ddd565b611023565b6040516102ab9190613111565b60405180910390f35b3480156102c057600080fd5b506102db60048036038101906102d69190613268565b61119c565b005b3480156102e957600080fd5b5061030460048036038101906102ff91906132b1565b611232565b60405161031191906132de565b60405180910390f35b34801561032657600080fd5b50610341600480360381019061033c9190612f25565b611271565b60405161034e91906130f6565b60405180910390f35b34801561036357600080fd5b5061037e60048036038101906103799190612f25565b611289565b60405161038b9190613418565b60405180910390f35b3480156103a057600080fd5b506103bb60048036038101906103b6919061343a565b6113ac565b005b3480156103c957600080fd5b506103e460048036038101906103df9190612f25565b611653565b6040516103f19190613111565b60405180910390f35b34801561040657600080fd5b50610421600480360381019061041c91906132b1565b611727565b005b34801561042f57600080fd5b5061044a600480360381019061044591906132b1565b611a65565b005b34801561045857600080fd5b50610461611e97565b60405161046e91906130f6565b60405180910390f35b34801561048357600080fd5b5061049e600480360381019061049991906132b1565b611e9d565b005b3480156104ac57600080fd5b506104c760048036038101906104c291906134b3565b61237d565b005b3480156104d557600080fd5b506104f060048036038101906104eb9190612ddd565b6124d4565b6040516105009493929190613502565b60405180910390f35b34801561051557600080fd5b50610530600480360381019061052b9190612f25565b61254e565b60405161053d91906130f6565b60405180910390f35b610560600480360381019061055b9190613547565b612566565b005b34801561056e57600080fd5b50610589600480360381019061058491906135ca565b6129b3565b005b606080606080600080600090505b60078054905081101561076957600060016000600784815481106105c0576105bf613626565b5b9060005260206000200160009054906101000a900473ffffffffffffffffffffffffffffffffffffffff1673ffffffffffffffffffffffffffffffffffffffff1673ffffffffffffffffffffffffffffffffffffffff168152602001908152602001600020805480602002602001604051908101604052809291908181526020016000905b828210156106fc57838290600052602060002090600402016040518060800160405290816000820160009054906101000a900473ffffffffffffffffffffffffffffffffffffffff1673ffffffffffffffffffffffffffffffffffffffff1673ffffffffffffffffffffffffffffffffffffffff16815260200160018201548152602001600282015481526020016003820160009054906101000a900460ff16151515158152505081526020019060010190610645565b50505050905060005b81518110156107545781818151811061072157610720613626565b5b6020026020010151606001511561074157838061073d90613684565b9450505b808061074c90613684565b915050610705565b5050808061076190613684565b915050610599565b508067ffffffffffffffff8111156107845761078361313d565b5b6040519080825280602002602001820160405280156107b25781602001602082028036833780820191505090505b5094508067ffffffffffffffff8111156107cf576107ce61313d565b5b6040519080825280602002602001820160405280156107fd5781602001602082028036833780820191505090505b5093508067ffffffffffffffff81111561081a5761081961313d565b5b6040519080825280602002602001820160405280156108485781602001602082028036833780820191505090505b5092508067ffffffffffffffff8111156108655761086461313d565b5b6040519080825280602002602001820160405280156108935781602001602082028036833780820191505090505b509150600080600090505b600780549050811015610b5e576000600782815481106108c1576108c0613626565b5b9060005260206000200160009054906101000a900473ffffffffffffffffffffffffffffffffffffffff1690506000600160008373ffffffffffffffffffffffffffffffffffffffff1673ffffffffffffffffffffffffffffffffffffffff168152602001908152602001600020805480602002602001604051908101604052809291908181526020016000905b82821015610a0657838290600052602060002090600402016040518060800160405290816000820160009054906101000a900473ffffffffffffffffffffffffffffffffffffffff1673ffffffffffffffffffffffffffffffffffffffff1673ffffffffffffffffffffffffffffffffffffffff16815260200160018201548152602001600282015481526020016003820160009054906101000a900460ff1615151515815250508152602001906001019061094f565b50505050905060005b8151811015610b4857818181518110610a2b57610a2a613626565b5b60200260200101516060015115610b3557828a8681518110610a5057610a4f613626565b5b602002602001019073ffffffffffffffffffffffffffffffffffffffff16908173ffffffffffffffffffffffffffffffffffffffff168152505080898681518110610a9e57610a9d613626565b5b602002602001018181525050818181518110610abd57610abc613626565b5b602002602001015160200151888681518110610adc57610adb613626565b5b602002602001018181525050818181518110610afb57610afa613626565b5b602002602001015160400151878681518110610b1a57610b19613626565b5b6020026020010181815250508480610b3190613684565b9550505b8080610b4090613684565b915050610a0f565b5050508080610b5690613684565b91505061089e565b50505090919293565b60026020528160005260406000208181548110610b8357600080fd5b9060005260206000209060050201600091509150508060000160009054906101000a900473ffffffffffffffffffffffffffffffffffffffff1690806001015490806002015490806003015490806004018054610bdf906136fb565b80601f0160208091040260200160405190810160405280929190818152602001828054610c0b906136fb565b8015610c585780601f10610c2d57610100808354040283529160200191610c58565b820191906000526020600020905b815481529060010190602001808311610c3b57829003601f168201915b5050505050905085565b6060600260008373ffffffffffffffffffffffffffffffffffffffff1673ffffffffffffffffffffffffffffffffffffffff168152602001908152602001600020805480602002602001604051908101604052809291908181526020016000905b82821015610dfb57838290600052602060002090600502016040518060a00160405290816000820160009054906101000a900473ffffffffffffffffffffffffffffffffffffffff1673ffffffffffffffffffffffffffffffffffffffff1673ffffffffffffffffffffffffffffffffffffffff168152602001600182015481526020016002820154815260200160038201548152602001600482018054610d6a906136fb565b80601f0160208091040260200160405190810160405280929190818152602001828054610d96906136fb565b8015610de35780601f10610db857610100808354040283529160200191610de3565b820191906000526020600020905b815481529060010190602001808311610dc657829003601f168201915b50505050508152505081526020019060010190610cc3565b505050509050919050565b6000600160008373ffffffffffffffffffffffffffffffffffffffff1673ffffffffffffffffffffffffffffffffffffffff168152602001908152602001600020805490509050919050565b600260005403610e97576040517f08c379a0000000000000000000000000000000000000000000000000000000008152600401610e8e90613778565b60405180910390fd5b60026000819055506000600360003373ffffffffffffffffffffffffffffffffffffffff1673ffffffffffffffffffffffffffffffffffffffff16815260200190815260200160002054905060008111610f26576040517f08c379a0000000000000000000000000000000000000000000000000000000008152600401610f1d906137e4565b60405180910390fd5b6000600360003373ffffffffffffffffffffffffffffffffffffffff1673ffffffffffffffffffffffffffffffffffffffff168152602001908152602001600020819055503373ffffffffffffffffffffffffffffffffffffffff166108fc829081150290604051600060405180830381858888f19350505050158015610fb1573d6000803e3d6000fd5b503373ffffffffffffffffffffffffffffffffffffffff167feaff4b37086828766ad3268786972c0cd24259d4c87a80f9d3963a3c3d999b0d82604051610ff891906130f6565b60405180910390a2506001600081905550565b60036020528060005260406000206000915090505481565b6060600260008473ffffffffffffffffffffffffffffffffffffffff1673ffffffffffffffffffffffffffffffffffffffff1681526020019081526020016000208054905082106110a9576040517f08c379a00000000000000000000000000000000000000000000000000000000081526004016110a090613850565b60405180910390fd5b600260008473ffffffffffffffffffffffffffffffffffffffff1673ffffffffffffffffffffffffffffffffffffffff16815260200190815260200160002082815481106110fa576110f9613626565b5b90600052602060002090600502016004018054611116906136fb565b80601f0160208091040260200160405190810160405280929190818152602001828054611142906136fb565b801561118f5780601f106111645761010080835404028352916020019161118f565b820191906000526020600020905b81548152906001019060200180831161117257829003601f168201915b5050505050905092915050565b80600660003373ffffffffffffffffffffffffffffffffffffffff1673ffffffffffffffffffffffffffffffffffffffff16815260200190815260200160002060000190816111eb9190613a1c565b503373ffffffffffffffffffffffffffffffffffffffff167fbe4ec58a792f909e102ee3d745d0c3b34a4d437a54d903c4db098d31c556422f60405160405180910390a250565b6007818154811061124257600080fd5b906000526020600020016000915054906101000a900473ffffffffffffffffffffffffffffffffffffffff1681565b60046020528060005260406000206000915090505481565b6060600160008373ffffffffffffffffffffffffffffffffffffffff1673ffffffffffffffffffffffffffffffffffffffff168152602001908152602001600020805480602002602001604051908101604052809291908181526020016000905b828210156113a157838290600052602060002090600402016040518060800160405290816000820160009054906101000a900473ffffffffffffffffffffffffffffffffffffffff1673ffffffffffffffffffffffffffffffffffffffff1673ffffffffffffffffffffffffffffffffffffffff16815260200160018201548152602001600282015481526020016003820160009054906101000a900460ff161515151581525050815260200190600101906112ea565b505050509050919050565b600081116113ef576040517f08c379a00000000000000000000000000000000000000000000000000000000081526004016113e690613b3a565b60405180910390fd5b60008211611432576040517f08c379a000000000000000000000000000000000000000000000000000000000815260040161142990613ba6565b60405180910390fd5b6000600160003373ffffffffffffffffffffffffffffffffffffffff1673ffffffffffffffffffffffffffffffffffffffff16815260200190815260200160002080549050036114e0576007339080600181540180825580915050600190039060005260206000200160009091909190916101000a81548173ffffffffffffffffffffffffffffffffffffffff021916908373ffffffffffffffffffffffffffffffffffffffff1602179055505b600160003373ffffffffffffffffffffffffffffffffffffffff1673ffffffffffffffffffffffffffffffffffffffff16815260200190815260200160002060405180608001604052803373ffffffffffffffffffffffffffffffffffffffff16815260200184815260200183815260200160011515815250908060018154018082558091505060019003906000526020600020906004020160009091909190915060008201518160000160006101000a81548173ffffffffffffffffffffffffffffffffffffffff021916908373ffffffffffffffffffffffffffffffffffffffff160217905550602082015181600101556040820151816002015560608201518160030160006101000a81548160ff02191690831515021790555050503373ffffffffffffffffffffffffffffffffffffffff167f5d682a5e507aa5ac81a337e9b2e3aaa322da84b344799fe2d6cb234b73597e1c8383604051611647929190613bc6565b60405180910390a25050565b6060600660008373ffffffffffffffffffffffffffffffffffffffff1673ffffffffffffffffffffffffffffffffffffffff16815260200190815260200160002060000180546116a2906136fb565b80601f01602080910402602001604051908101604052809291908181526020018280546116ce906136fb565b801561171b5780601f106116f05761010080835404028352916020019161171b565b820191906000526020600020905b8154815290600101906020018083116116fe57829003601f168201915b50505050509050919050565b600160003373ffffffffffffffffffffffffffffffffffffffff1673ffffffffffffffffffffffffffffffffffffffff1681526020019081526020016000208054905081106117ab576040517f08c379a00000000000000000000000000000000000000000000000000000000081526004016117a290613c3b565b60405180910390fd5b600160003373ffffffffffffffffffffffffffffffffffffffff1673ffffffffffffffffffffffffffffffffffffffff16815260200190815260200160002060018060003373ffffffffffffffffffffffffffffffffffffffff1673ffffffffffffffffffffffffffffffffffffffff168152602001908152602001600020805490506118389190613c5b565b8154811061184957611848613626565b5b9060005260206000209060040201600160003373ffffffffffffffffffffffffffffffffffffffff1673ffffffffffffffffffffffffffffffffffffffff16815260200190815260200160002082815481106118a8576118a7613626565b5b90600052602060002090600402016000820160009054906101000a900473ffffffffffffffffffffffffffffffffffffffff168160000160006101000a81548173ffffffffffffffffffffffffffffffffffffffff021916908373ffffffffffffffffffffffffffffffffffffffff16021790555060018201548160010155600282015481600201556003820160009054906101000a900460ff168160030160006101000a81548160ff021916908315150217905550905050600160003373ffffffffffffffffffffffffffffffffffffffff1673ffffffffffffffffffffffffffffffffffffffff1681526020019081526020016000208054806119b0576119af613c8f565b5b6001900381819060005260206000209060040201600080820160006101000a81549073ffffffffffffffffffffffffffffffffffffffff0219169055600182016000905560028201600090556003820160006101000a81549060ff0219169055505090553373ffffffffffffffffffffffffffffffffffffffff167fe79328456dcdc3a32f4265f98fc8c05513712eea6729428d07d1802a93045a0882604051611a5a91906130f6565b60405180910390a250565b600260005403611aaa576040517f08c379a0000000000000000000000000000000000000000000000000000000008152600401611aa190613778565b60405180910390fd5b6002600081905550600260003373ffffffffffffffffffffffffffffffffffffffff1673ffffffffffffffffffffffffffffffffffffffff168152602001908152602001600020805490508110611b36576040517f08c379a0000000000000000000000000000000000000000000000000000000008152600401611b2d90613850565b60405180910390fd5b600260003373ffffffffffffffffffffffffffffffffffffffff1673ffffffffffffffffffffffffffffffffffffffff1681526020019081526020016000208181548110611b8757611b86613626565b5b906000526020600020906005020160020154421015611bdb576040517f08c379a0000000000000000000000000000000000000000000000000000000008152600401611bd290613d0a565b60405180910390fd5b600260003373ffffffffffffffffffffffffffffffffffffffff1673ffffffffffffffffffffffffffffffffffffffff1681526020019081526020016000206001600260003373ffffffffffffffffffffffffffffffffffffffff1673ffffffffffffffffffffffffffffffffffffffff16815260200190815260200160002080549050611c699190613c5b565b81548110611c7a57611c79613626565b5b9060005260206000209060050201600260003373ffffffffffffffffffffffffffffffffffffffff1673ffffffffffffffffffffffffffffffffffffffff1681526020019081526020016000208281548110611cd957611cd8613626565b5b90600052602060002090600502016000820160009054906101000a900473ffffffffffffffffffffffffffffffffffffffff168160000160006101000a81548173ffffffffffffffffffffffffffffffffffffffff021916908373ffffffffffffffffffffffffffffffffffffffff16021790555060018201548160010155600282015481600201556003820154816003015560048201816004019081611d809190613d40565b50905050600260003373ffffffffffffffffffffffffffffffffffffffff1673ffffffffffffffffffffffffffffffffffffffff168152602001908152602001600020805480611dd357611dd2613c8f565b5b6001900381819060005260206000209060050201600080820160006101000a81549073ffffffffffffffffffffffffffffffffffffffff0219169055600182016000905560028201600090556003820160009055600482016000611e379190612afb565b505090553373ffffffffffffffffffffffffffffffffffffffff167fc61b762d39e0775db30552b237ee0aba1a869e6ba29541b155821f53c39b3890826000604051611e84929190613e28565b60405180910390a2600160008190555050565b60085481565b600260005403611ee2576040517f08c379a0000000000000000000000000000000000000000000000000000000008152600401611ed990613778565b60405180910390fd5b6002600081905550600260003373ffffffffffffffffffffffffffffffffffffffff1673ffffffffffffffffffffffffffffffffffffffff168152602001908152602001600020805490508110611f6e576040517f08c379a0000000000000000000000000000000000000000000000000000000008152600401611f6590613850565b60405180910390fd5b600260003373ffffffffffffffffffffffffffffffffffffffff1673ffffffffffffffffffffffffffffffffffffffff1681526020019081526020016000208181548110611fbf57611fbe613626565b5b906000526020600020906005020160020154421015612013576040517f08c379a000000000000000000000000000000000000000000000000000000000815260040161200a90613d0a565b60405180910390fd5b6000600260003373ffffffffffffffffffffffffffffffffffffffff1673ffffffffffffffffffffffffffffffffffffffff168152602001908152602001600020828154811061206657612065613626565b5b9060005260206000209060050201600301549050600260003373ffffffffffffffffffffffffffffffffffffffff1673ffffffffffffffffffffffffffffffffffffffff1681526020019081526020016000206001600260003373ffffffffffffffffffffffffffffffffffffffff1673ffffffffffffffffffffffffffffffffffffffff168152602001908152602001600020805490506121089190613c5b565b8154811061211957612118613626565b5b9060005260206000209060050201600260003373ffffffffffffffffffffffffffffffffffffffff1673ffffffffffffffffffffffffffffffffffffffff168152602001908152602001600020838154811061217857612177613626565b5b90600052602060002090600502016000820160009054906101000a900473ffffffffffffffffffffffffffffffffffffffff168160000160006101000a81548173ffffffffffffffffffffffffffffffffffffffff021916908373ffffffffffffffffffffffffffffffffffffffff1602179055506001820154816001015560028201548160020155600382015481600301556004820181600401908161221f9190613d40565b50905050600260003373ffffffffffffffffffffffffffffffffffffffff1673ffffffffffffffffffffffffffffffffffffffff16815260200190815260200160002080548061227257612271613c8f565b5b6001900381819060005260206000209060050201600080820160006101000a81549073ffffffffffffffffffffffffffffffffffffffff02191690556001820160009055600282016000905560038201600090556004820160006122d69190612afb565b505090553373ffffffffffffffffffffffffffffffffffffffff166108fc829081150290604051600060405180830381858888f19350505050158015612320573d6000803e3d6000fd5b503373ffffffffffffffffffffffffffffffffffffffff167f93c496f36ecab5f5583f216646cac3acb12a63aeacddb1a9251ceb81f0ee36e78383604051612369929190613bc6565b60405180910390a250600160008190555050565b60018160ff1610158015612395575060058160ff1611155b6123d4576040517f08c379a00000000000000000000000000000000000000000000000000000000081526004016123cb90613e9d565b60405180910390fd5b8060ff16600460008473ffffffffffffffffffffffffffffffffffffffff1673ffffffffffffffffffffffffffffffffffffffff16815260200190815260200160002060008282546124269190613ebd565b92505081905550600560008373ffffffffffffffffffffffffffffffffffffffff1673ffffffffffffffffffffffffffffffffffffffff168152602001908152602001600020600081548092919061247d90613684565b91905055508173ffffffffffffffffffffffffffffffffffffffff167f11abe8074860e0bc30fe1e939af8af88f3e47815a5e6f316d87b12912c56e672826040516124c89190613f00565b60405180910390a25050565b600160205281600052604060002081815481106124f057600080fd5b9060005260206000209060040201600091509150508060000160009054906101000a900473ffffffffffffffffffffffffffffffffffffffff16908060010154908060020154908060030160009054906101000a900460ff16905084565b60056020528060005260406000206000915090505481565b6002600054036125ab576040517f08c379a00000000000000000000000000000000000000000000000000000000081526004016125a290613778565b60405180910390fd5b6002600081905550600160008573ffffffffffffffffffffffffffffffffffffffff1673ffffffffffffffffffffffffffffffffffffffff168152602001908152602001600020805490508310612637576040517f08c379a000000000000000000000000000000000000000000000000000000000815260040161262e90613c3b565b60405180910390fd5b6000600160008673ffffffffffffffffffffffffffffffffffffffff1673ffffffffffffffffffffffffffffffffffffffff168152602001908152602001600020848154811061268a57612689613626565b5b906000526020600020906004020190508060030160009054906101000a900460ff166126eb576040517f08c379a00000000000000000000000000000000000000000000000000000000081526004016126e290613f67565b60405180910390fd5b6000831161272e576040517f08c379a000000000000000000000000000000000000000000000000000000000815260040161272590613fd3565b60405180910390fd5b60008382600101546127409190613ff3565b9050803414612784576040517f08c379a000000000000000000000000000000000000000000000000000000000815260040161277b90614081565b60405180910390fd5b600062015180856127959190613ff3565b426127a09190613ebd565b9050600260003373ffffffffffffffffffffffffffffffffffffffff1673ffffffffffffffffffffffffffffffffffffffff1681526020019081526020016000206040518060a001604052808973ffffffffffffffffffffffffffffffffffffffff16815260200188815260200183815260200184815260200186815250908060018154018082558091505060019003906000526020600020906005020160009091909190915060008201518160000160006101000a81548173ffffffffffffffffffffffffffffffffffffffff021916908373ffffffffffffffffffffffffffffffffffffffff16021790555060208201518160010155604082015181600201556060820151816003015560808201518160040190816128c19190613a1c565b50505060008360030160006101000a81548160ff02191690831515021790555081600360008973ffffffffffffffffffffffffffffffffffffffff1673ffffffffffffffffffffffffffffffffffffffff16815260200190815260200160002060008282546129309190613ebd565b925050819055508673ffffffffffffffffffffffffffffffffffffffff163373ffffffffffffffffffffffffffffffffffffffff167f5f8e9b40134381ef41679ce70b254b34a334c8b8961f5da9635a42cb686e08f38888858960405161299a94939291906140a1565b60405180910390a3505050600160008190555050505050565b600260003373ffffffffffffffffffffffffffffffffffffffff1673ffffffffffffffffffffffffffffffffffffffff168152602001908152602001600020805490508210612a37576040517f08c379a0000000000000000000000000000000000000000000000000000000008152600401612a2e90613850565b60405180910390fd5b80600260003373ffffffffffffffffffffffffffffffffffffffff1673ffffffffffffffffffffffffffffffffffffffff1681526020019081526020016000208381548110612a8957612a88613626565b5b90600052602060002090600502016004019081612aa69190613a1c565b503373ffffffffffffffffffffffffffffffffffffffff167f239aa29e2cb919fe7f6dae64c00bab69f4216532270ab6f31013b1563c05ac918383604051612aef9291906140ed565b60405180910390a25050565b508054612b07906136fb565b6000825580601f10612b195750612b38565b601f016020900490600052602060002090810190612b379190612b3b565b5b50565b5b80821115612b54576000816000905550600101612b3c565b5090565b600081519050919050565b600082825260208201905092915050565b6000819050602082019050919050565b600073ffffffffffffffffffffffffffffffffffffffff82169050919050565b6000612baf82612b84565b9050919050565b612bbf81612ba4565b82525050565b6000612bd18383612bb6565b60208301905092915050565b6000602082019050919050565b6000612bf582612b58565b612bff8185612b63565b9350612c0a83612b74565b8060005b83811015612c3b578151612c228882612bc5565b9750612c2d83612bdd565b925050600181019050612c0e565b5085935050505092915050565b600081519050919050565b600082825260208201905092915050565b6000819050602082019050919050565b6000819050919050565b612c8781612c74565b82525050565b6000612c998383612c7e565b60208301905092915050565b6000602082019050919050565b6000612cbd82612c48565b612cc78185612c53565b9350612cd283612c64565b8060005b83811015612d03578151612cea8882612c8d565b9750612cf583612ca5565b925050600181019050612cd6565b5085935050505092915050565b60006080820190508181036000830152612d2a8187612bea565b90508181036020830152612d3e8186612cb2565b90508181036040830152612d528185612cb2565b90508181036060830152612d668184612cb2565b905095945050505050565b6000604051905090565b600080fd5b600080fd5b612d8e81612ba4565b8114612d9957600080fd5b50565b600081359050612dab81612d85565b92915050565b612dba81612c74565b8114612dc557600080fd5b50565b600081359050612dd781612db1565b92915050565b60008060408385031215612df457612df3612d7b565b5b6000612e0285828601612d9c565b9250506020612e1385828601612dc8565b9150509250929050565b612e2681612ba4565b82525050565b612e3581612c74565b82525050565b600081519050919050565b600082825260208201905092915050565b60005b83811015612e75578082015181840152602081019050612e5a565b60008484015250505050565b6000601f19601f8301169050919050565b6000612e9d82612e3b565b612ea78185612e46565b9350612eb7818560208601612e57565b612ec081612e81565b840191505092915050565b600060a082019050612ee06000830188612e1d565b612eed6020830187612e2c565b612efa6040830186612e2c565b612f076060830185612e2c565b8181036080830152612f198184612e92565b90509695505050505050565b600060208284031215612f3b57612f3a612d7b565b5b6000612f4984828501612d9c565b91505092915050565b600081519050919050565b600082825260208201905092915050565b6000819050602082019050919050565b600082825260208201905092915050565b6000612f9a82612e3b565b612fa48185612f7e565b9350612fb4818560208601612e57565b612fbd81612e81565b840191505092915050565b600060a083016000830151612fe06000860182612bb6565b506020830151612ff36020860182612c7e565b5060408301516130066040860182612c7e565b5060608301516130196060860182612c7e565b50608083015184820360808601526130318282612f8f565b9150508091505092915050565b600061304a8383612fc8565b905092915050565b6000602082019050919050565b600061306a82612f52565b6130748185612f5d565b93508360208202850161308685612f6e565b8060005b858110156130c257848403895281516130a3858261303e565b94506130ae83613052565b925060208a0199505060018101905061308a565b50829750879550505050505092915050565b600060208201905081810360008301526130ee818461305f565b905092915050565b600060208201905061310b6000830184612e2c565b92915050565b6000602082019050818103600083015261312b8184612e92565b905092915050565b600080fd5b600080fd5b7f4e487b7100000000000000000000000000000000000000000000000000000000600052604160045260246000fd5b61317582612e81565b810181811067ffffffffffffffff821117156131945761319361313d565b5b80604052505050565b60006131a7612d71565b90506131b3828261316c565b919050565b600067ffffffffffffffff8211156131d3576131d261313d565b5b6131dc82612e81565b9050602081019050919050565b82818337600083830152505050565b600061320b613206846131b8565b61319d565b90508281526020810184848401111561322757613226613138565b5b6132328482856131e9565b509392505050565b600082601f83011261324f5761324e613133565b5b813561325f8482602086016131f8565b91505092915050565b60006020828403121561327e5761327d612d7b565b5b600082013567ffffffffffffffff81111561329c5761329b612d80565b5b6132a88482850161323a565b91505092915050565b6000602082840312156132c7576132c6612d7b565b5b60006132d584828501612dc8565b91505092915050565b60006020820190506132f36000830184612e1d565b92915050565b600081519050919050565b600082825260208201905092915050565b6000819050602082019050919050565b60008115159050919050565b61333a81613325565b82525050565b6080820160008201516133566000850182612bb6565b5060208201516133696020850182612c7e565b50604082015161337c6040850182612c7e565b50606082015161338f6060850182613331565b50505050565b60006133a18383613340565b60808301905092915050565b6000602082019050919050565b60006133c5826132f9565b6133cf8185613304565b93506133da83613315565b8060005b8381101561340b5781516133f28882613395565b97506133fd836133ad565b9250506001810190506133de565b5085935050505092915050565b6000602082019050818103600083015261343281846133ba565b905092915050565b6000806040838503121561345157613450612d7b565b5b600061345f85828601612dc8565b925050602061347085828601612dc8565b9150509250929050565b600060ff82169050919050565b6134908161347a565b811461349b57600080fd5b50565b6000813590506134ad81613487565b92915050565b600080604083850312156134ca576134c9612d7b565b5b60006134d885828601612d9c565b92505060206134e98582860161349e565b9150509250929050565b6134fc81613325565b82525050565b60006080820190506135176000830187612e1d565b6135246020830186612e2c565b6135316040830185612e2c565b61353e60608301846134f3565b95945050505050565b6000806000806080858703121561356157613560612d7b565b5b600061356f87828801612d9c565b945050602061358087828801612dc8565b935050604061359187828801612dc8565b925050606085013567ffffffffffffffff8111156135b2576135b1612d80565b5b6135be8782880161323a565b91505092959194509250565b600080604083850312156135e1576135e0612d7b565b5b60006135ef85828601612dc8565b925050602083013567ffffffffffffffff8111156136105761360f612d80565b5b61361c8582860161323a565b9150509250929050565b7f4e487b7100000000000000000000000000000000000000000000000000000000600052603260045260246000fd5b7f4e487b7100000000000000000000000000000000000000000000000000000000600052601160045260246000fd5b600061368f82612c74565b91507fffffffffffffffffffffffffffffffffffffffffffffffffffffffffffffffff82036136c1576136c0613655565b5b600182019050919050565b7f4e487b7100000000000000000000000000000000000000000000000000000000600052602260045260246000fd5b6000600282049050600182168061371357607f821691505b602082108103613726576137256136cc565b5b50919050565b7f5265656e7472616e637947756172643a207265656e7472616e742063616c6c00600082015250565b6000613762601f83612e46565b915061376d8261372c565b602082019050919050565b6000602082019050818103600083015261379181613755565b9050919050565b7f4e6f206561726e696e677320617661696c61626c650000000000000000000000600082015250565b60006137ce601583612e46565b91506137d982613798565b602082019050919050565b600060208201905081810360008301526137fd816137c1565b9050919050565b7f496e76616c69642072656e74616c20696e646578000000000000000000000000600082015250565b600061383a601483612e46565b915061384582613804565b602082019050919050565b600060208201905081810360008301526138698161382d565b9050919050565b60008190508160005260206000209050919050565b60006020601f8301049050919050565b600082821b905092915050565b6000600883026138d27fffffffffffffffffffffffffffffffffffffffffffffffffffffffffffffffff82613895565b6138dc8683613895565b95508019841693508086168417925050509392505050565b6000819050919050565b600061391961391461390f84612c74565b6138f4565b612c74565b9050919050565b6000819050919050565b613933836138fe565b61394761393f82613920565b8484546138a2565b825550505050565b600090565b61395c61394f565b61396781848461392a565b505050565b5b8181101561398b57613980600082613954565b60018101905061396d565b5050565b601f8211156139d0576139a181613870565b6139aa84613885565b810160208510156139b9578190505b6139cd6139c585613885565b83018261396c565b50505b505050565b600082821c905092915050565b60006139f3600019846008026139d5565b1980831691505092915050565b6000613a0c83836139e2565b9150826002028217905092915050565b613a2582612e3b565b67ffffffffffffffff811115613a3e57613a3d61313d565b5b613a4882546136fb565b613a5382828561398f565b600060209050601f831160018114613a865760008415613a74578287015190505b613a7e8582613a00565b865550613ae6565b601f198416613a9486613870565b60005b82811015613abc57848901518255600182019150602085019450602081019050613a97565b86831015613ad95784890151613ad5601f8916826139e2565b8355505b6001600288020188555050505b505050505050565b7f53697a65206d7573742062652067726561746572207468616e207a65726f0000600082015250565b6000613b24601e83612e46565b9150613b2f82613aee565b602082019050919050565b60006020820190508181036000830152613b5381613b17565b9050919050565b7f5072696365206d7573742062652067726561746572207468616e207a65726f00600082015250565b6000613b90601f83612e46565b9150613b9b82613b5a565b602082019050919050565b60006020820190508181036000830152613bbf81613b83565b9050919050565b6000604082019050613bdb6000830185612e2c565b613be86020830184612e2c565b9392505050565b7f496e76616c69642073746f726167652049440000000000000000000000000000600082015250565b6000613c25601283612e46565b9150613c3082613bef565b602082019050919050565b60006020820190508181036000830152613c5481613c18565b9050919050565b6000613c6682612c74565b9150613c7183612c74565b9250828203905081811115613c8957613c88613655565b5b92915050565b7f4e487b7100000000000000000000000000000000000000000000000000000000600052603160045260246000fd5b7f52656e74616c20706572696f64206e6f74206f76657200000000000000000000600082015250565b6000613cf4601683612e46565b9150613cff82613cbe565b602082019050919050565b60006020820190508181036000830152613d2381613ce7565b9050919050565b600081549050613d39816136fb565b9050919050565b818103613d4e575050613e26565b613d5782613d2a565b67ffffffffffffffff811115613d7057613d6f61313d565b5b613d7a82546136fb565b613d8582828561398f565b6000601f831160018114613db45760008415613da2578287015490505b613dac8582613a00565b865550613e1f565b601f198416613dc287613870565b9650613dcd86613870565b60005b82811015613df557848901548255600182019150600185019450602081019050613dd0565b86831015613e125784890154613e0e601f8916826139e2565b8355505b6001600288020188555050505b5050505050505b565b6000604082019050613e3d6000830185612e2c565b613e4a60208301846134f3565b9392505050565b7f526174696e67206d757374206265206265747765656e203120616e6420350000600082015250565b6000613e87601e83612e46565b9150613e9282613e51565b602082019050919050565b60006020820190508181036000830152613eb681613e7a565b9050919050565b6000613ec882612c74565b9150613ed383612c74565b9250828201905080821115613eeb57613eea613655565b5b92915050565b613efa8161347a565b82525050565b6000602082019050613f156000830184613ef1565b92915050565b7f53746f72616765206e6f7420617661696c61626c650000000000000000000000600082015250565b6000613f51601583612e46565b9150613f5c82613f1b565b602082019050919050565b60006020820190508181036000830152613f8081613f44565b9050919050565b7f4d7573742072656e7420666f72206174206c65617374206f6e65206461790000600082015250565b6000613fbd601e83612e46565b9150613fc882613f87565b602082019050919050565b60006020820190508181036000830152613fec81613fb0565b9050919050565b6000613ffe82612c74565b915061400983612c74565b925082820261401781612c74565b9150828204841483151761402e5761402d613655565b5b5092915050565b7f496e636f7272656374207061796d656e7420616d6f756e740000000000000000600082015250565b600061406b601883612e46565b915061407682614035565b602082019050919050565b6000602082019050818103600083015261409a8161405e565b9050919050565b60006080820190506140b66000830187612e2c565b6140c36020830186612e2c565b6140d06040830185612e2c565b81810360608301526140e28184612e92565b905095945050505050565b60006040820190506141026000830185612e2c565b81810360208301526141148184612e92565b9050939250505056fea2646970667358221220f1e60939cce9671f3ee340a7484307a6113aee6f1dc5121954252486ea63225e64736f6c63430008130033",
  "immutableReferences": {},
  "source": "// SPDX-License-Identifier: MIT\r\npragma solidity ^0.8.19;\r\n\r\nimport \"./ReentrancyGuard.sol\";\r\n\r\ncontract DiskSpaceRental is ReentrancyGuard {\r\n    // --- EVENTS ---\r\n    event ContractDeployed(address indexed deployer);\r\n    event StorageListed(address indexed provider, uint256 pricePerDay, uint256 sizeInGB);\r\n    event StorageUnlisted(address indexed provider, uint256 storageId);\r\n    event StorageRented(address indexed renter, address indexed provider, uint256 storageId, uint256 rentalDays, uint256 endTime, string cid);\r\n    event RentalEnded(address indexed renter, uint256 storageId, bool refunded);\r\n    event CIDUpdated(address indexed renter, uint256 storageId, string cid);\r\n    event FundsWithdrawn(address indexed provider, uint256 amount);\r\n    event ProviderRated(address indexed provider, uint8 rating);\r\n    event RefundIssued(address indexed renter, uint256 storageId, uint256 amount);\r\n    event ProfileUpdated(address indexed user);\r\n\r\n    // --- STRUCTS ---\r\n    struct Storage {\r\n        address provider;\r\n        uint256 pricePerDay;\r\n        uint256 sizeInGB;\r\n        bool isAvailable;\r\n    }\r\n\r\n    struct Rental {\r\n        address provider;\r\n        uint256 storageId;\r\n        uint256 endTime;\r\n        uint256 escrowAmount;\r\n        string cid;\r\n    }\r\n\r\n    struct EncryptedProfile {\r\n        string encryptedData;\r\n    }\r\n\r\n    // --- STATE ---\r\n    mapping(address => Storage[]) public storageProviders;\r\n    mapping(address => Rental[]) public rentals;\r\n    mapping(address => uint256) public providerBalances;\r\n    mapping(address => uint256) public providerRatings;\r\n    mapping(address => uint256) public totalReviews;\r\n    mapping(address => EncryptedProfile) private profiles;\r\n\r\n    address[] public allProviders;\r\n    uint256 public basePricePerGB = 0.01 ether;\r\n\r\n    constructor() {\r\n        emit ContractDeployed(msg.sender);\r\n    }\r\n\r\n    // --- PROFILE FUNCTIONS ---\r\n    function updateEncryptedProfile(string memory _encryptedData) external {\r\n        profiles[msg.sender].encryptedData = _encryptedData;\r\n        emit ProfileUpdated(msg.sender);\r\n    }\r\n\r\n    function getEncryptedProfile(address _user) external view returns (string memory) {\r\n        return profiles[_user].encryptedData;\r\n    }\r\n\r\n    // --- STORAGE LISTING ---\r\n    function listStorage(uint256 _pricePerDay, uint256 _sizeInGB) external {\r\n        require(_sizeInGB > 0, \"Size must be greater than zero\");\r\n        require(_pricePerDay > 0, \"Price must be greater than zero\");\r\n\r\n        if (storageProviders[msg.sender].length == 0) {\r\n            allProviders.push(msg.sender);\r\n        }\r\n\r\n        storageProviders[msg.sender].push(Storage({\r\n            provider: msg.sender,\r\n            pricePerDay: _pricePerDay,\r\n            sizeInGB: _sizeInGB,\r\n            isAvailable: true\r\n        }));\r\n\r\n        emit StorageListed(msg.sender, _pricePerDay, _sizeInGB);\r\n    }\r\n\r\n    function getAllAvailableStorage()\r\n        external\r\n        view\r\n        returns (\r\n            address[] memory providers,\r\n            uint256[] memory storageIds,\r\n            uint256[] memory prices,\r\n            uint256[] memory sizes\r\n        )\r\n    {\r\n        uint256 count;\r\n\r\n        for (uint256 i = 0; i < allProviders.length; i++) {\r\n            Storage[] memory listings = storageProviders[allProviders[i]];\r\n            for (uint256 j = 0; j < listings.length; j++) {\r\n                if (listings[j].isAvailable) count++;\r\n            }\r\n        }\r\n\r\n        providers = new address[](count);\r\n        storageIds = new uint256[](count);\r\n        prices = new uint256[](count);\r\n        sizes = new uint256[](count);\r\n\r\n        uint256 index;\r\n        for (uint256 i = 0; i < allProviders.length; i++) {\r\n            address provider = allProviders[i];\r\n            Storage[] memory listings = storageProviders[provider];\r\n            for (uint256 j = 0; j < listings.length; j++) {\r\n                if (listings[j].isAvailable) {\r\n                    providers[index] = provider;\r\n                    storageIds[index] = j;\r\n                    prices[index] = listings[j].pricePerDay;\r\n                    sizes[index] = listings[j].sizeInGB;\r\n                    index++;\r\n                }\r\n            }\r\n        }\r\n    }\r\n\r\n    function unlistStorage(uint256 _storageId) external {\r\n        require(_storageId < storageProviders[msg.sender].length, \"Invalid storage ID\");\r\n        storageProviders[msg.sender][_storageId] = storageProviders[msg.sender][storageProviders[msg.sender].length - 1];\r\n        storageProviders[msg.sender].pop();\r\n        emit StorageUnlisted(msg.sender, _storageId);\r\n    }\r\n\r\n    function getMyListings(address _provider) external view returns (Storage[] memory) {\r\n        return storageProviders[_provider];\r\n    }\r\n\r\n    function getTotalListings(address _provider) external view returns (uint256) {\r\n        return storageProviders[_provider].length;\r\n    }\r\n\r\n    // --- RENTING ---\r\n    function rentStorage(address _provider, uint256 _storageId, uint256 _rentalDays, string memory _cid) external payable nonReentrant {\r\n        require(_storageId < storageProviders[_provider].length, \"Invalid storage ID\");\r\n        Storage storage providerStorage = storageProviders[_provider][_storageId];\r\n\r\n        require(providerStorage.isAvailable, \"Storage not available\");\r\n        require(_rentalDays > 0, \"Must rent for at least one day\");\r\n\r\n        uint256 totalCost = providerStorage.pricePerDay * _rentalDays;\r\n        require(msg.value == totalCost, \"Incorrect payment amount\");\r\n\r\n        uint256 rentalEndTime = block.timestamp + (_rentalDays * 1 days);\r\n\r\n        rentals[msg.sender].push(Rental({\r\n            provider: _provider,\r\n            storageId: _storageId,\r\n            endTime: rentalEndTime,\r\n            escrowAmount: totalCost,\r\n            cid: _cid\r\n        }));\r\n\r\n        providerStorage.isAvailable = false;\r\n        providerBalances[_provider] += totalCost;\r\n\r\n        emit StorageRented(msg.sender, _provider, _storageId, _rentalDays, rentalEndTime, _cid);\r\n    }\r\n\r\n    function getMyRentals(address _renter) external view returns (Rental[] memory) {\r\n        return rentals[_renter];\r\n    }\r\n\r\n    function getCID(address _renter, uint256 _index) public view returns (string memory) {\r\n        require(_index < rentals[_renter].length, \"Invalid rental index\");\r\n        return rentals[_renter][_index].cid;\r\n    }\r\n\r\n    function updateCID(uint256 _index, string memory _cid) external {\r\n        require(_index < rentals[msg.sender].length, \"Invalid rental index\");\r\n        rentals[msg.sender][_index].cid = _cid;\r\n        emit CIDUpdated(msg.sender, _index, _cid);\r\n    }\r\n\r\n    function endRental(uint256 _index) external nonReentrant {\r\n        require(_index < rentals[msg.sender].length, \"Invalid rental index\");\r\n        require(block.timestamp >= rentals[msg.sender][_index].endTime, \"Rental period not over\");\r\n        rentals[msg.sender][_index] = rentals[msg.sender][rentals[msg.sender].length - 1];\r\n        rentals[msg.sender].pop();\r\n        emit RentalEnded(msg.sender, _index, false);\r\n    }\r\n\r\n    function requestRefund(uint256 _index) external nonReentrant {\r\n        require(_index < rentals[msg.sender].length, \"Invalid rental index\");\r\n        require(block.timestamp >= rentals[msg.sender][_index].endTime, \"Rental period not over\");\r\n\r\n        uint256 refundAmount = rentals[msg.sender][_index].escrowAmount;\r\n        rentals[msg.sender][_index] = rentals[msg.sender][rentals[msg.sender].length - 1];\r\n        rentals[msg.sender].pop();\r\n        payable(msg.sender).transfer(refundAmount);\r\n        emit RefundIssued(msg.sender, _index, refundAmount);\r\n    }\r\n\r\n    function withdrawFunds() external nonReentrant {\r\n        uint256 balance = providerBalances[msg.sender];\r\n        require(balance > 0, \"No earnings available\");\r\n        providerBalances[msg.sender] = 0;\r\n        payable(msg.sender).transfer(balance);\r\n        emit FundsWithdrawn(msg.sender, balance);\r\n    }\r\n\r\n    // --- RATING ---\r\n    function rateProvider(address _provider, uint8 _rating) external {\r\n        require(_rating >= 1 && _rating <= 5, \"Rating must be between 1 and 5\");\r\n        providerRatings[_provider] += _rating;\r\n        totalReviews[_provider]++;\r\n        emit ProviderRated(_provider, _rating);\r\n    }\r\n}",
  "sourcePath": "C:\\Users\\dattu\\OneDrive\\Desktop\\poject code\\PBL@\\contracts\\DiskSpaceRental.sol",
  "compiler": {
    "name": "solc",
    "version": "0.8.19+commit.7dd6d404.Emscripten.clang"
  },
  "schemaVersion": "3.4.16",
  "updatedAt": "2025-04-21T05:19:10.485Z",
  "networkType": "ethereum",
  "devdoc": {
    "kind": "dev",
    "methods": {},
    "version": 1
  },
  "userdoc": {
    "kind": "user",
    "methods": {},
    "version": 1
  }
}